{
  "contractName": "OptionTrades",
  "abi": [
    {
      "inputs": [],
      "stateMutability": "nonpayable",
      "type": "constructor"
    },
    {
      "inputs": [
        {
          "internalType": "uint256",
          "name": "",
          "type": "uint256"
        }
      ],
      "name": "maticOpts",
      "outputs": [
        {
          "internalType": "uint256",
          "name": "strike",
          "type": "uint256"
        },
        {
          "internalType": "uint256",
          "name": "premium",
          "type": "uint256"
        },
        {
          "internalType": "uint256",
          "name": "expiry",
          "type": "uint256"
        },
        {
          "internalType": "uint256",
          "name": "amount",
          "type": "uint256"
        },
        {
          "internalType": "bool",
          "name": "exercised",
          "type": "bool"
        },
        {
          "internalType": "bool",
          "name": "canceled",
          "type": "bool"
        },
        {
          "internalType": "uint256",
          "name": "id",
          "type": "uint256"
        },
        {
          "internalType": "uint256",
          "name": "latestCost",
          "type": "uint256"
        },
        {
          "internalType": "address payable",
          "name": "writer",
          "type": "address"
        },
        {
          "internalType": "address payable",
          "name": "buyer",
          "type": "address"
        }
      ],
      "stateMutability": "view",
      "type": "function",
      "constant": true
    },
    {
      "inputs": [],
      "name": "getMaticPrice",
      "outputs": [
        {
          "internalType": "uint256",
          "name": "",
          "type": "uint256"
        }
      ],
      "stateMutability": "view",
      "type": "function",
      "constant": true
    },
    {
      "inputs": [
        {
          "internalType": "uint256",
          "name": "strike",
          "type": "uint256"
        },
        {
          "internalType": "uint256",
          "name": "premium",
          "type": "uint256"
        },
        {
          "internalType": "uint256",
          "name": "expiry",
          "type": "uint256"
        },
        {
          "internalType": "uint256",
          "name": "tknAmt",
          "type": "uint256"
        }
      ],
      "name": "writeOption",
      "outputs": [],
      "stateMutability": "payable",
      "type": "function",
      "payable": true
    },
    {
      "inputs": [
        {
          "internalType": "uint256",
          "name": "ID",
          "type": "uint256"
        }
      ],
      "name": "cancelOption",
      "outputs": [],
      "stateMutability": "payable",
      "type": "function",
      "payable": true
    },
    {
      "inputs": [
        {
          "internalType": "uint256",
          "name": "ID",
          "type": "uint256"
        }
      ],
      "name": "buyOption",
      "outputs": [],
      "stateMutability": "payable",
      "type": "function",
      "payable": true
    },
    {
      "inputs": [
        {
          "internalType": "uint256",
          "name": "ID",
          "type": "uint256"
        }
      ],
      "name": "exercise",
      "outputs": [],
      "stateMutability": "payable",
      "type": "function",
      "payable": true
    },
    {
      "inputs": [
        {
          "internalType": "uint256",
          "name": "ID",
          "type": "uint256"
        }
      ],
      "name": "retrieveExpiredFunds",
      "outputs": [],
      "stateMutability": "payable",
      "type": "function",
      "payable": true
    },
    {
      "inputs": [
        {
          "internalType": "uint256",
          "name": "ID",
          "type": "uint256"
        }
      ],
      "name": "updateExerciseCost",
      "outputs": [],
      "stateMutability": "nonpayable",
      "type": "function"
    },
    {
      "inputs": [],
      "name": "getMaticOptsLength",
      "outputs": [
        {
          "internalType": "uint256",
          "name": "",
          "type": "uint256"
        }
      ],
      "stateMutability": "view",
      "type": "function",
      "constant": true
    }
  ],
  "bytecode": "0x608060405234801561001057600080fd5b5073d0d5e3db44de05e9f294bb0a3beeaf030de24ada6000806101000a81548173ffffffffffffffffffffffffffffffffffffffff021916908373ffffffffffffffffffffffffffffffffffffffff16021790555073326c977e6efc84e512bb9c30f76e30c160ed06fb600160006101000a81548173ffffffffffffffffffffffffffffffffffffffff021916908373ffffffffffffffffffffffffffffffffffffffff16021790555030600360006101000a81548173ffffffffffffffffffffffffffffffffffffffff021916908373ffffffffffffffffffffffffffffffffffffffff160217905550611ef48061010a6000396000f3fe6080604052600436106100865760003560e01c8063c83d324811610059578063c83d324814610125578063db99e79314610150578063de6bf63514610179578063f1356ffc14610195578063fba225b9146101c057610086565b80635891a76b1461008b57806363259516146100a7578063790eee2e146100ed578063b07f0a4114610109575b600080fd5b6100a560048036038101906100a09190611655565b6101dc565b005b3480156100b357600080fd5b506100ce60048036038101906100c9919061162c565b610411565b6040516100e49a99989796959493929190611c7b565b60405180910390f35b6101076004803603810190610102919061162c565b6104cf565b005b610123600480360381019061011e919061162c565b61085e565b005b34801561013157600080fd5b5061013a610d1c565b6040516101479190611c60565b60405180910390f35b34801561015c57600080fd5b506101776004803603810190610172919061162c565b610e1b565b005b610193600480360381019061018e919061162c565b610f34565b005b3480156101a157600080fd5b506101aa6112ad565b6040516101b79190611c60565b60405180910390f35b6101da60048036038101906101d5919061162c565b6112ba565b005b6101e46115c8565b803414610226576040517f08c379a000000000000000000000000000000000000000000000000000000000815260040161021d90611b80565b60405180910390fd5b60006402540be40060025461023b9190611d59565b82866102479190611d59565b6102519190611d28565b9050600460405180610140016040528087815260200186815260200185815260200184815260200160001515815260200160001515815260200160048054905081526020018381526020013373ffffffffffffffffffffffffffffffffffffffff168152602001600073ffffffffffffffffffffffffffffffffffffffff1681525090806001815401808255809150506001900390600052602060002090600902016000909190919091506000820151816000015560208201518160010155604082015181600201556060820151816003015560808201518160040160006101000a81548160ff02191690831515021790555060a08201518160040160016101000a81548160ff02191690831515021790555060c0820151816005015560e082015181600601556101008201518160070160006101000a81548173ffffffffffffffffffffffffffffffffffffffff021916908373ffffffffffffffffffffffffffffffffffffffff1602179055506101208201518160080160006101000a81548173ffffffffffffffffffffffffffffffffffffffff021916908373ffffffffffffffffffffffffffffffffffffffff16021790555050505050505050565b6004818154811061042157600080fd5b90600052602060002090600902016000915090508060000154908060010154908060020154908060030154908060040160009054906101000a900460ff16908060040160019054906101000a900460ff16908060050154908060060154908060070160009054906101000a900473ffffffffffffffffffffffffffffffffffffffff16908060080160009054906101000a900473ffffffffffffffffffffffffffffffffffffffff1690508a565b60048181548110610509577f4e487b7100000000000000000000000000000000000000000000000000000000600052603260045260246000fd5b906000526020600020906009020160070160009054906101000a900473ffffffffffffffffffffffffffffffffffffffff1673ffffffffffffffffffffffffffffffffffffffff163373ffffffffffffffffffffffffffffffffffffffff16146105a8576040517f08c379a000000000000000000000000000000000000000000000000000000000815260040161059f90611bc0565b60405180910390fd5b42600482815481106105e3577f4e487b7100000000000000000000000000000000000000000000000000000000600052603260045260246000fd5b90600052602060002090600902016002015411158015610659575060048181548110610638577f4e487b7100000000000000000000000000000000000000000000000000000000600052603260045260246000fd5b906000526020600020906009020160040160009054906101000a900460ff16155b80156106bb57506004818154811061069a577f4e487b7100000000000000000000000000000000000000000000000000000000600052603260045260246000fd5b906000526020600020906009020160040160019054906101000a900460ff16155b6106fa576040517f08c379a00000000000000000000000000000000000000000000000000000000081526004016106f190611c20565b60405180910390fd5b60048181548110610734577f4e487b7100000000000000000000000000000000000000000000000000000000600052603260045260246000fd5b906000526020600020906009020160070160009054906101000a900473ffffffffffffffffffffffffffffffffffffffff1673ffffffffffffffffffffffffffffffffffffffff166108fc600483815481106107b9577f4e487b7100000000000000000000000000000000000000000000000000000000600052603260045260246000fd5b9060005260206000209060090201600301549081150290604051600060405180830381858888f193505050501580156107f6573d6000803e3d6000fd5b50600160048281548110610833577f4e487b7100000000000000000000000000000000000000000000000000000000600052603260045260246000fd5b906000526020600020906009020160040160016101000a81548160ff02191690831515021790555050565b3373ffffffffffffffffffffffffffffffffffffffff16600482815481106108af577f4e487b7100000000000000000000000000000000000000000000000000000000600052603260045260246000fd5b906000526020600020906009020160080160009054906101000a900473ffffffffffffffffffffffffffffffffffffffff1673ffffffffffffffffffffffffffffffffffffffff1614610937576040517f08c379a000000000000000000000000000000000000000000000000000000000815260040161092e90611b40565b60405180910390fd5b60048181548110610971577f4e487b7100000000000000000000000000000000000000000000000000000000600052603260045260246000fd5b906000526020600020906009020160040160009054906101000a900460ff16156109d0576040517f08c379a00000000000000000000000000000000000000000000000000000000081526004016109c790611c40565b60405180910390fd5b4260048281548110610a0b577f4e487b7100000000000000000000000000000000000000000000000000000000600052603260045260246000fd5b90600052602060002090600902016002015411610a5d576040517f08c379a0000000000000000000000000000000000000000000000000000000008152600401610a5490611b60565b60405180910390fd5b610a656115c8565b600060048281548110610aa1577f4e487b7100000000000000000000000000000000000000000000000000000000600052603260045260246000fd5b90600052602060002090600902016003015460048381548110610aed577f4e487b7100000000000000000000000000000000000000000000000000000000600052603260045260246000fd5b906000526020600020906009020160000154610b099190611d59565b905060006402540be400600254610b209190611d59565b82610b2b9190611d28565b9050803414610b6f576040517f08c379a0000000000000000000000000000000000000000000000000000000008152600401610b6690611b20565b60405180910390fd5b60048381548110610ba9577f4e487b7100000000000000000000000000000000000000000000000000000000600052603260045260246000fd5b906000526020600020906009020160070160009054906101000a900473ffffffffffffffffffffffffffffffffffffffff1673ffffffffffffffffffffffffffffffffffffffff166108fc829081150290604051600060405180830381858888f19350505050158015610c20573d6000803e3d6000fd5b503373ffffffffffffffffffffffffffffffffffffffff166108fc60048581548110610c75577f4e487b7100000000000000000000000000000000000000000000000000000000600052603260045260246000fd5b9060005260206000209060090201600301549081150290604051600060405180830381858888f19350505050158015610cb2573d6000803e3d6000fd5b50600160048481548110610cef577f4e487b7100000000000000000000000000000000000000000000000000000000600052603260045260246000fd5b906000526020600020906009020160040160006101000a81548160ff021916908315150217905550505050565b60008060008060008060008054906101000a900473ffffffffffffffffffffffffffffffffffffffff1673ffffffffffffffffffffffffffffffffffffffff1663feaf968c6040518163ffffffff1660e01b815260040160a06040518083038186803b158015610d8b57600080fd5b505afa158015610d9f573d6000803e3d6000fd5b505050506040513d601f19601f82011682018060405250810190610dc391906116b8565b9450945094509450945060008211610e10576040517f08c379a0000000000000000000000000000000000000000000000000000000008152600401610e0790611be0565b60405180910390fd5b839550505050505090565b610e236115c8565b6402540be400600254610e369190611d59565b60048281548110610e70577f4e487b7100000000000000000000000000000000000000000000000000000000600052603260045260246000fd5b90600052602060002090600902016003015460048381548110610ebc577f4e487b7100000000000000000000000000000000000000000000000000000000600052603260045260246000fd5b906000526020600020906009020160000154610ed89190611d59565b610ee29190611d28565b60048281548110610f1c577f4e487b7100000000000000000000000000000000000000000000000000000000600052603260045260246000fd5b90600052602060002090600902016006018190555050565b60048181548110610f6e577f4e487b7100000000000000000000000000000000000000000000000000000000600052603260045260246000fd5b906000526020600020906009020160070160009054906101000a900473ffffffffffffffffffffffffffffffffffffffff1673ffffffffffffffffffffffffffffffffffffffff163373ffffffffffffffffffffffffffffffffffffffff161461100d576040517f08c379a000000000000000000000000000000000000000000000000000000000815260040161100490611bc0565b60405180910390fd5b60048181548110611047577f4e487b7100000000000000000000000000000000000000000000000000000000600052603260045260246000fd5b906000526020600020906009020160040160019054906101000a900460ff1615801561110a5750600073ffffffffffffffffffffffffffffffffffffffff16600482815481106110c0577f4e487b7100000000000000000000000000000000000000000000000000000000600052603260045260246000fd5b906000526020600020906009020160080160009054906101000a900473ffffffffffffffffffffffffffffffffffffffff1673ffffffffffffffffffffffffffffffffffffffff16145b611149576040517f08c379a000000000000000000000000000000000000000000000000000000000815260040161114090611c00565b60405180910390fd5b60048181548110611183577f4e487b7100000000000000000000000000000000000000000000000000000000600052603260045260246000fd5b906000526020600020906009020160070160009054906101000a900473ffffffffffffffffffffffffffffffffffffffff1673ffffffffffffffffffffffffffffffffffffffff166108fc60048381548110611208577f4e487b7100000000000000000000000000000000000000000000000000000000600052603260045260246000fd5b9060005260206000209060090201600301549081150290604051600060405180830381858888f19350505050158015611245573d6000803e3d6000fd5b50600160048281548110611282577f4e487b7100000000000000000000000000000000000000000000000000000000600052603260045260246000fd5b906000526020600020906009020160040160016101000a81548160ff02191690831515021790555050565b6000600480549050905090565b6112c26115c8565b600481815481106112fc577f4e487b7100000000000000000000000000000000000000000000000000000000600052603260045260246000fd5b906000526020600020906009020160040160019054906101000a900460ff161580156113725750426004828154811061135e577f4e487b7100000000000000000000000000000000000000000000000000000000600052603260045260246000fd5b906000526020600020906009020160020154115b6113b1576040517f08c379a00000000000000000000000000000000000000000000000000000000081526004016113a890611b00565b60405180910390fd5b600481815481106113eb577f4e487b7100000000000000000000000000000000000000000000000000000000600052603260045260246000fd5b906000526020600020906009020160010154341461143e576040517f08c379a000000000000000000000000000000000000000000000000000000000815260040161143590611ba0565b60405180910390fd5b60048181548110611478577f4e487b7100000000000000000000000000000000000000000000000000000000600052603260045260246000fd5b906000526020600020906009020160070160009054906101000a900473ffffffffffffffffffffffffffffffffffffffff1673ffffffffffffffffffffffffffffffffffffffff166108fc600483815481106114fd577f4e487b7100000000000000000000000000000000000000000000000000000000600052603260045260246000fd5b9060005260206000209060090201600101549081150290604051600060405180830381858888f1935050505015801561153a573d6000803e3d6000fd5b503360048281548110611576577f4e487b7100000000000000000000000000000000000000000000000000000000600052603260045260246000fd5b906000526020600020906009020160080160006101000a81548173ffffffffffffffffffffffffffffffffffffffff021916908373ffffffffffffffffffffffffffffffffffffffff16021790555050565b6115d0610d1c565b600281905550565b6000815190506115e781611e79565b92915050565b6000813590506115fc81611e90565b92915050565b60008151905061161181611e90565b92915050565b60008151905061162681611ea7565b92915050565b60006020828403121561163e57600080fd5b600061164c848285016115ed565b91505092915050565b6000806000806080858703121561166b57600080fd5b6000611679878288016115ed565b945050602061168a878288016115ed565b935050604061169b878288016115ed565b92505060606116ac878288016115ed565b91505092959194509250565b600080600080600060a086880312156116d057600080fd5b60006116de88828901611617565b95505060206116ef888289016115d8565b945050604061170088828901611602565b935050606061171188828901611602565b925050608061172288828901611617565b9150509295509295909350565b61173881611db3565b82525050565b61174781611dc5565b82525050565b600061175a602f83611d17565b91507f4f7074696f6e2069732063616e63656c65642f6578706972656420616e64206360008301527f616e6e6f7420626520626f7567687400000000000000000000000000000000006020830152604082019050919050565b60006117c0602683611d17565b91507f496e636f7272656374204c494e4b20616d6f756e742073656e7420746f20657860008301527f65726369736500000000000000000000000000000000000000000000000000006020830152604082019050919050565b6000611826601a83611d17565b91507f596f7520646f206e6f74206f776e2074686973206f7074696f6e0000000000006000830152602082019050919050565b6000611866601183611d17565b91507f4f7074696f6e20697320657870697265640000000000000000000000000000006000830152602082019050919050565b60006118a6602283611d17565b91507f496e636f727265637420616d6f756e74206f66204d6174696320737570706c6960008301527f65640000000000000000000000000000000000000000000000000000000000006020830152604082019050919050565b600061190c602a83611d17565b91507f496e636f727265637420616d6f756e74206f66204d415449432073656e74206660008301527f6f72207072656d69756d000000000000000000000000000000000000000000006020830152604082019050919050565b6000611972601d83611d17565b91507f596f7520646964206e6f742077726974652074686973206f7074696f6e0000006000830152602082019050919050565b60006119b2601283611d17565b91507f526f756e64206e6f7420636f6d706c65746500000000000000000000000000006000830152602082019050919050565b60006119f2601e83611d17565b91507f54686973206f7074696f6e2063616e6e6f742062652063616e63656c656400006000830152602082019050919050565b6000611a32602883611d17565b91507f54686973206f7074696f6e206973206e6f7420656c696769626c6520666f722060008301527f77697468647261770000000000000000000000000000000000000000000000006020830152604082019050919050565b6000611a98602183611d17565b91507f4f7074696f6e2068617320616c7265616479206265656e20657865726369736560008301527f64000000000000000000000000000000000000000000000000000000000000006020830152604082019050919050565b611afa81611dfb565b82525050565b60006020820190508181036000830152611b198161174d565b9050919050565b60006020820190508181036000830152611b39816117b3565b9050919050565b60006020820190508181036000830152611b5981611819565b9050919050565b60006020820190508181036000830152611b7981611859565b9050919050565b60006020820190508181036000830152611b9981611899565b9050919050565b60006020820190508181036000830152611bb9816118ff565b9050919050565b60006020820190508181036000830152611bd981611965565b9050919050565b60006020820190508181036000830152611bf9816119a5565b9050919050565b60006020820190508181036000830152611c19816119e5565b9050919050565b60006020820190508181036000830152611c3981611a25565b9050919050565b60006020820190508181036000830152611c5981611a8b565b9050919050565b6000602082019050611c756000830184611af1565b92915050565b600061014082019050611c91600083018d611af1565b611c9e602083018c611af1565b611cab604083018b611af1565b611cb8606083018a611af1565b611cc5608083018961173e565b611cd260a083018861173e565b611cdf60c0830187611af1565b611cec60e0830186611af1565b611cfa61010083018561172f565b611d0861012083018461172f565b9b9a5050505050505050505050565b600082825260208201905092915050565b6000611d3382611dfb565b9150611d3e83611dfb565b925082611d4e57611d4d611e4a565b5b828204905092915050565b6000611d6482611dfb565b9150611d6f83611dfb565b9250817fffffffffffffffffffffffffffffffffffffffffffffffffffffffffffffffff0483118215151615611da857611da7611e1b565b5b828202905092915050565b6000611dbe82611ddb565b9050919050565b60008115159050919050565b6000819050919050565b600073ffffffffffffffffffffffffffffffffffffffff82169050919050565b6000819050919050565b600069ffffffffffffffffffff82169050919050565b7f4e487b7100000000000000000000000000000000000000000000000000000000600052601160045260246000fd5b7f4e487b7100000000000000000000000000000000000000000000000000000000600052601260045260246000fd5b611e8281611dd1565b8114611e8d57600080fd5b50565b611e9981611dfb565b8114611ea457600080fd5b50565b611eb081611e05565b8114611ebb57600080fd5b5056fea2646970667358221220d8e4b975970945a22625b7f8b1629d1a3fb1b1097d9b5ebed29400a33df406d364736f6c63430008000033",
  "immutableReferences": {},
  "source": "pragma solidity 0.8.0;\n\nimport \"./dependencies/LinkTokenInterface.sol\";\nimport \"./dependencies/AggregatorV3Interface.sol\";\n\ncontract OptionTrades {\n    //Pricefeed interfaces\n    AggregatorV3Interface internal maticFeed;\n    //Interface for LINK token functions\n    LinkTokenInterface internal LINK;\n    uint maticPrice;\n    address payable contractAddr;\n    \n    //Options stored in arrays of structs\n    struct option {\n        uint strike; //Price in USD (18 decimal places) option allows buyer to purchase tokens at\n        uint premium; //Fee in contract token that option writer charges\n        uint expiry; //Unix timestamp of expiration time\n        uint amount; //Amount of tokens the option contract is for\n        bool exercised; //Has option been exercised\n        bool canceled; //Has option been canceled\n        uint id; //Unique ID of option, also array index\n        uint latestCost; //Helper to show last updated cost to exercise\n        address payable writer; //Issuer of option\n        address payable buyer; //Buyer of option\n    }\n    option[] public maticOpts;\n\n    //Kovan feeds: https://docs.chain.link/docs/reference-contracts\n    constructor() public {\n        // -- Matic --\n        /*\n        //MATIC/USD feed\n        maticFeed = AggregatorV3Interface(0xAB594600376Ec9fD91F8e885dADF0CE036862dE0);\n        //LINK token address\n        LINK = LinkTokenInterface(0xb0897686c545045aFc77CF20eC7A532E3120E0F1);\n        */\n\n        // -- Mumbai --\n        /* */\n        //MATIC/USD feed\n        maticFeed = AggregatorV3Interface(0xd0D5e3DB44DE05E9F294BB0a3bEEaF030DE24Ada);\n        //LINK token address\n        LINK = LinkTokenInterface(0x326C977E6efc84E512bB9C30f76E30c160eD06FB);\n        contractAddr = payable(address(this));\n    }\n    \n    //Returns the latest MATIC price\n    function getMaticPrice() public view returns (uint) {\n        (\n            uint80 roundID, \n            int price,\n            uint startedAt,\n            uint timeStamp,\n            uint80 answeredInRound\n        ) = maticFeed.latestRoundData();\n        // If the round is not complete yet, timestamp is 0\n        require(timeStamp > 0, \"Round not complete\");\n        //Price should never be negative thus cast int to unit is ok\n        //Price is 8 decimal places and will require 1e10 correction later to 18 places\n        return uint(price);\n    }\n    \n    //Updates prices to latest\n    function updatePrices() internal {\n        maticPrice = getMaticPrice();\n    }\n    \n    //Allows user to write a covered call option\n    //Takes which token, a strike price(USD per token w/18 decimal places), premium(same unit as token), expiration time(unix) and how many tokens the contract is for\n    function writeOption(uint strike, uint premium, uint expiry, uint tknAmt) public payable {\n        updatePrices();\n        require(msg.value == tknAmt, \"Incorrect amount of Matic supplied\"); \n        uint latestCost = (strike * tknAmt) / (maticPrice * 10**10); //current cost to exercise in Matic, decimal places corrected\n        maticOpts.push(option(strike, premium, expiry, tknAmt, false, false, maticOpts.length, latestCost, payable(msg.sender), payable(address(0))));\n    }\n    \n    //Allows option writer to cancel and get their funds back from an unpurchased option\n    function cancelOption(uint ID) public payable {\n        require(msg.sender == maticOpts[ID].writer, \"You did not write this option\");\n        //Must not have already been canceled or bought\n        require(!maticOpts[ID].canceled && maticOpts[ID].buyer == address(0), \"This option cannot be canceled\");\n        maticOpts[ID].writer.transfer(maticOpts[ID].amount);\n        maticOpts[ID].canceled = true;\n    }\n    \n    //Purchase a call option, needs desired token, ID of option and payment\n    function buyOption(uint ID) public payable {\n        updatePrices();\n        require(!maticOpts[ID].canceled && maticOpts[ID].expiry > block.timestamp, \"Option is canceled/expired and cannot be bought\");\n        //Transfer premium payment from buyer\n        require(msg.value == maticOpts[ID].premium, \"Incorrect amount of MATIC sent for premium\");\n        //Transfer premium payment to writer\n        maticOpts[ID].writer.transfer(maticOpts[ID].premium);\n        maticOpts[ID].buyer = payable(msg.sender);\n    }\n    \n    //Exercise your call option, needs desired token, ID of option and payment\n    function exercise(uint ID) public payable {\n        //If not expired and not already exercised, allow option owner to exercise\n        //To exercise, the strike value*amount equivalent paid to writer (from buyer) and amount of tokens in the contract paid to buyer\n        require(maticOpts[ID].buyer == msg.sender, \"You do not own this option\");\n        require(!maticOpts[ID].exercised, \"Option has already been exercised\");\n        require(maticOpts[ID].expiry > block.timestamp, \"Option is expired\");\n        //Conditions are met, proceed to payouts\n        updatePrices();\n        //Cost to exercise\n        uint exerciseVal = maticOpts[ID].strike*maticOpts[ID].amount;\n        //Equivalent MATIC value using Chainlink feed\n        uint equivMatic = exerciseVal / (maticPrice * 10**10); //move decimal 10 places right to account for 8 places of pricefeed\n        //Buyer exercises option by paying strike*amount equivalent MATIC value\n        require(msg.value == equivMatic, \"Incorrect LINK amount sent to exercise\");\n        //Pay writer the exercise cost\n        maticOpts[ID].writer.transfer(equivMatic);\n        //Pay buyer contract amount of MATIC\n        payable(msg.sender).transfer(maticOpts[ID].amount);\n        maticOpts[ID].exercised = true;\n    }\n    \n    //Allows writer to retrieve funds from an expired, non-exercised, non-canceled option\n    function retrieveExpiredFunds(uint ID) public payable {\n        require(msg.sender == maticOpts[ID].writer, \"You did not write this option\");\n        //Must be expired, not exercised and not canceled\n        require(maticOpts[ID].expiry <= block.timestamp && !maticOpts[ID].exercised && !maticOpts[ID].canceled, \"This option is not eligible for withdraw\");\n        maticOpts[ID].writer.transfer(maticOpts[ID].amount);\n        //Repurposing canceled flag to prevent more than one withdraw\n        maticOpts[ID].canceled = true;\n    }\n    \n    //This is a helper function to help the user see what the cost to exercise an option is currently before they do so\n    //Updates lastestCost member of option which is publicly viewable\n    function updateExerciseCost(uint ID) public {\n        updatePrices();\n        maticOpts[ID].latestCost = (maticOpts[ID].strike * maticOpts[ID].amount) / (maticPrice * 10**10);\n    }\n\n    function getMaticOptsLength() public view returns(uint256) {\n        return maticOpts.length;\n    }\n}",
  "sourcePath": "/home/turupawn/Projects/Blockchain/MyOptionsTrade/contracts/OptionTrades.sol",
  "compiler": {
    "name": "solc",
    "version": "0.8.0+commit.c7dfd78e.Emscripten.clang"
  },
  "schemaVersion": "3.4.0",
  "updatedAt": "2021-05-06T17:40:20.648Z",
  "networkType": "ethereum",
  "devdoc": {
    "kind": "dev",
    "methods": {},
    "version": 1
  },
  "userdoc": {
    "kind": "user",
    "methods": {},
    "version": 1
  }
}