{
  "contractName": "OptionTrades",
  "abi": [
    {
      "inputs": [],
      "stateMutability": "nonpayable",
      "type": "constructor"
    },
    {
      "inputs": [
        {
          "internalType": "uint256",
          "name": "",
          "type": "uint256"
        }
      ],
      "name": "maticOpts",
      "outputs": [
        {
          "internalType": "enum OptionTrades.OptionType",
          "name": "optionType",
          "type": "uint8"
        },
        {
          "internalType": "uint256",
          "name": "strike",
          "type": "uint256"
        },
        {
          "internalType": "uint256",
          "name": "premium",
          "type": "uint256"
        },
        {
          "internalType": "uint256",
          "name": "expiry",
          "type": "uint256"
        },
        {
          "internalType": "uint256",
          "name": "amount",
          "type": "uint256"
        },
        {
          "internalType": "bool",
          "name": "exercised",
          "type": "bool"
        },
        {
          "internalType": "bool",
          "name": "canceled",
          "type": "bool"
        },
        {
          "internalType": "uint256",
          "name": "id",
          "type": "uint256"
        },
        {
          "internalType": "address payable",
          "name": "writer",
          "type": "address"
        },
        {
          "internalType": "address payable",
          "name": "buyer",
          "type": "address"
        }
      ],
      "stateMutability": "view",
      "type": "function",
      "constant": true
    },
    {
      "inputs": [],
      "name": "getMaticPrice",
      "outputs": [
        {
          "internalType": "uint256",
          "name": "",
          "type": "uint256"
        }
      ],
      "stateMutability": "view",
      "type": "function",
      "constant": true
    },
    {
      "inputs": [
        {
          "internalType": "uint256",
          "name": "strike",
          "type": "uint256"
        },
        {
          "internalType": "uint256",
          "name": "premium",
          "type": "uint256"
        },
        {
          "internalType": "uint256",
          "name": "expiry",
          "type": "uint256"
        },
        {
          "internalType": "uint256",
          "name": "tknAmt",
          "type": "uint256"
        },
        {
          "internalType": "string",
          "name": "optionType",
          "type": "string"
        }
      ],
      "name": "writeOption",
      "outputs": [],
      "stateMutability": "payable",
      "type": "function",
      "payable": true
    },
    {
      "inputs": [
        {
          "internalType": "uint256",
          "name": "ID",
          "type": "uint256"
        }
      ],
      "name": "cancelOption",
      "outputs": [],
      "stateMutability": "payable",
      "type": "function",
      "payable": true
    },
    {
      "inputs": [
        {
          "internalType": "uint256",
          "name": "ID",
          "type": "uint256"
        }
      ],
      "name": "buyOption",
      "outputs": [],
      "stateMutability": "payable",
      "type": "function",
      "payable": true
    },
    {
      "inputs": [
        {
          "internalType": "uint256",
          "name": "ID",
          "type": "uint256"
        }
      ],
      "name": "exercise",
      "outputs": [],
      "stateMutability": "payable",
      "type": "function",
      "payable": true
    },
    {
      "inputs": [
        {
          "internalType": "uint256",
          "name": "ID",
          "type": "uint256"
        }
      ],
      "name": "retrieveExpiredFunds",
      "outputs": [],
      "stateMutability": "payable",
      "type": "function",
      "payable": true
    },
    {
      "inputs": [
        {
          "internalType": "uint256",
          "name": "ID",
          "type": "uint256"
        }
      ],
      "name": "getExerciseCost",
      "outputs": [
        {
          "internalType": "uint256",
          "name": "",
          "type": "uint256"
        }
      ],
      "stateMutability": "view",
      "type": "function",
      "constant": true
    },
    {
      "inputs": [],
      "name": "getMaticOptsLength",
      "outputs": [
        {
          "internalType": "uint256",
          "name": "maticOptsLength",
          "type": "uint256"
        }
      ],
      "stateMutability": "view",
      "type": "function",
      "constant": true
    },
    {
      "inputs": [
        {
          "internalType": "address",
          "name": "_address",
          "type": "address"
        },
        {
          "internalType": "bool",
          "name": "include_if_writer",
          "type": "bool"
        },
        {
          "internalType": "bool",
          "name": "include_if_buyer",
          "type": "bool"
        },
        {
          "internalType": "bool",
          "name": "exclude_expired",
          "type": "bool"
        },
        {
          "internalType": "bool",
          "name": "exclude_canceled",
          "type": "bool"
        },
        {
          "internalType": "bool",
          "name": "exclude_exercised",
          "type": "bool"
        },
        {
          "internalType": "bool",
          "name": "exclude_bought",
          "type": "bool"
        }
      ],
      "name": "getMaticOptsByAddress",
      "outputs": [
        {
          "internalType": "uint256[]",
          "name": "optionIds",
          "type": "uint256[]"
        }
      ],
      "stateMutability": "view",
      "type": "function",
      "constant": true
    },
    {
      "inputs": [
        {
          "internalType": "bool",
          "name": "exclude_expired",
          "type": "bool"
        },
        {
          "internalType": "bool",
          "name": "exclude_canceled",
          "type": "bool"
        },
        {
          "internalType": "bool",
          "name": "exclude_exercised",
          "type": "bool"
        },
        {
          "internalType": "bool",
          "name": "exclude_bought",
          "type": "bool"
        }
      ],
      "name": "getMaticOpts",
      "outputs": [
        {
          "internalType": "uint256[]",
          "name": "optionIds",
          "type": "uint256[]"
        }
      ],
      "stateMutability": "view",
      "type": "function",
      "constant": true
    }
  ],
  "bytecode": "0x60806040526040516020016200001590620001b0565b604051602081830303815290604052805190602001206003556040516020016200003f9062000199565b604051602081830303815290604052805190602001206004553480156200006557600080fd5b5073ab594600376ec9fd91f8e885dadf0ce036862de06000806101000a81548173ffffffffffffffffffffffffffffffffffffffff021916908373ffffffffffffffffffffffffffffffffffffffff16021790555073b0897686c545045afc77cf20ec7a532e3120e0f1600160006101000a81548173ffffffffffffffffffffffffffffffffffffffff021916908373ffffffffffffffffffffffffffffffffffffffff160217905550620001d2565b600062000124600383620001c7565b91507f50555400000000000000000000000000000000000000000000000000000000006000830152600382019050919050565b600062000166600483620001c7565b91507f43414c4c000000000000000000000000000000000000000000000000000000006000830152600482019050919050565b6000620001a68262000115565b9150819050919050565b6000620001bd8262000157565b9150819050919050565b600081905092915050565b6133ea80620001e26000396000f3fe60806040526004361061009c5760003560e01c8063790eee2e11610064578063790eee2e146101ba578063b07f0a41146101d6578063c83d3248146101f2578063de6bf6351461021d578063f1356ffc14610239578063fba225b9146102645761009c565b8063015414f2146100a15780632cec78db146100de5780633a39f6231461011b5780633f1ec384146101375780636325951614610174575b600080fd5b3480156100ad57600080fd5b506100c860048036038101906100c391906126a7565b610280565b6040516100d59190612d4c565b60405180910390f35b3480156100ea57600080fd5b506101056004803603810190610100919061270a565b6106c7565b6040516101129190612f8a565b60405180910390f35b61013560048036038101906101309190612733565b610799565b005b34801561014357600080fd5b5061015e60048036038101906101599190612609565b610ac1565b60405161016b9190612d4c565b60405180910390f35b34801561018057600080fd5b5061019b6004803603810190610196919061270a565b611263565b6040516101b19a99989796959493929190612d6e565b60405180910390f35b6101d460048036038101906101cf919061270a565b61132e565b005b6101f060048036038101906101eb919061270a565b6116bd565b005b3480156101fe57600080fd5b50610207611d98565b6040516102149190612f8a565b60405180910390f35b6102376004803603810190610232919061270a565b611e97565b005b34801561024557600080fd5b5061024e612210565b60405161025b9190612f8a565b60405180910390f35b61027e6004803603810190610279919061270a565b61221d565b005b60606000805b600580549050811015610497578680156102ea575042600582815481106102d6577f4e487b7100000000000000000000000000000000000000000000000000000000600052603260045260246000fd5b906000526020600020906009020160030154115b1580156103565750858015610354575060058181548110610334577f4e487b7100000000000000000000000000000000000000000000000000000000600052603260045260246000fd5b906000526020600020906009020160050160019054906101000a900460ff165b155b80156103c157508480156103bf57506005818154811061039f577f4e487b7100000000000000000000000000000000000000000000000000000000600052603260045260246000fd5b906000526020600020906009020160050160019054906101000a900460ff165b155b801561046f575083801561046d5750600073ffffffffffffffffffffffffffffffffffffffff1660058281548110610422577f4e487b7100000000000000000000000000000000000000000000000000000000600052603260045260246000fd5b906000526020600020906009020160080160009054906101000a900473ffffffffffffffffffffffffffffffffffffffff1673ffffffffffffffffffffffffffffffffffffffff1614155b155b15610484576001826104819190613066565b91505b808061048f90613228565b915050610286565b5060008167ffffffffffffffff8111156104da577f4e487b7100000000000000000000000000000000000000000000000000000000600052604160045260246000fd5b6040519080825280602002602001820160405280156105085781602001602082028036833780820191505090505b5090506000805b6005805490508110156106b8578880156105735750426005828154811061055f577f4e487b7100000000000000000000000000000000000000000000000000000000600052603260045260246000fd5b906000526020600020906009020160030154115b1580156105df57508780156105dd5750600581815481106105bd577f4e487b7100000000000000000000000000000000000000000000000000000000600052603260045260246000fd5b906000526020600020906009020160050160019054906101000a900460ff165b155b801561064a5750868015610648575060058181548110610628577f4e487b7100000000000000000000000000000000000000000000000000000000600052603260045260246000fd5b906000526020600020906009020160050160019054906101000a900460ff165b155b156106a55780838381518110610689577f4e487b7100000000000000000000000000000000000000000000000000000000600052603260045260246000fd5b6020026020010181815250506001826106a29190613066565b91505b80806106b090613228565b91505061050f565b50819350505050949350505050565b6000806106d2611d98565b90506402540be400816106e591906130ed565b6005848154811061071f577f4e487b7100000000000000000000000000000000000000000000000000000000600052603260045260246000fd5b9060005260206000209060090201600401546005858154811061076b577f4e487b7100000000000000000000000000000000000000000000000000000000600052603260045260246000fd5b90600052602060002090600902016001015461078791906130ed565b61079191906130bc565b915050919050565b6000816040516020016107ac9190612d35565b6040516020818303038152906040528051906020012090506003548114806107d5575060045481145b610814576040517f08c379a000000000000000000000000000000000000000000000000000000000815260040161080b90612e4a565b60405180910390fd5b823414610856576040517f08c379a000000000000000000000000000000000000000000000000000000000815260040161084d90612eaa565b60405180910390fd5b6000610860611d98565b90506000600354831415610877576001905061087c565b600090505b60056040518061014001604052808360018111156108c3577f4e487b7100000000000000000000000000000000000000000000000000000000600052602160045260246000fd5b81526020018a815260200189815260200188815260200187815260200160001515815260200160001515815260200160058054905081526020013373ffffffffffffffffffffffffffffffffffffffff168152602001600073ffffffffffffffffffffffffffffffffffffffff16815250908060018154018082558091505060019003906000526020600020906009020160009091909190915060008201518160000160006101000a81548160ff021916908360018111156109ae577f4e487b7100000000000000000000000000000000000000000000000000000000600052602160045260246000fd5b02179055506020820151816001015560408201518160020155606082015181600301556080820151816004015560a08201518160050160006101000a81548160ff02191690831515021790555060c08201518160050160016101000a81548160ff02191690831515021790555060e082015181600601556101008201518160070160006101000a81548173ffffffffffffffffffffffffffffffffffffffff021916908373ffffffffffffffffffffffffffffffffffffffff1602179055506101208201518160080160006101000a81548173ffffffffffffffffffffffffffffffffffffffff021916908373ffffffffffffffffffffffffffffffffffffffff16021790555050505050505050505050565b60606000805b600580549050811015610e2d57868015610b2b57504260058281548110610b17577f4e487b7100000000000000000000000000000000000000000000000000000000600052603260045260246000fd5b906000526020600020906009020160030154115b158015610b975750858015610b95575060058181548110610b75577f4e487b7100000000000000000000000000000000000000000000000000000000600052603260045260246000fd5b906000526020600020906009020160050160019054906101000a900460ff165b155b8015610c025750848015610c00575060058181548110610be0577f4e487b7100000000000000000000000000000000000000000000000000000000600052603260045260246000fd5b906000526020600020906009020160050160019054906101000a900460ff165b155b8015610cb05750838015610cae5750600073ffffffffffffffffffffffffffffffffffffffff1660058281548110610c63577f4e487b7100000000000000000000000000000000000000000000000000000000600052603260045260246000fd5b906000526020600020906009020160080160009054906101000a900473ffffffffffffffffffffffffffffffffffffffff1673ffffffffffffffffffffffffffffffffffffffff1614155b155b8015610e055750888015610d5a57508973ffffffffffffffffffffffffffffffffffffffff1660058281548110610d10577f4e487b7100000000000000000000000000000000000000000000000000000000600052603260045260246000fd5b906000526020600020906009020160070160009054906101000a900473ffffffffffffffffffffffffffffffffffffffff1673ffffffffffffffffffffffffffffffffffffffff16145b80610e045750878015610e0357508973ffffffffffffffffffffffffffffffffffffffff1660058281548110610db9577f4e487b7100000000000000000000000000000000000000000000000000000000600052603260045260246000fd5b906000526020600020906009020160080160009054906101000a900473ffffffffffffffffffffffffffffffffffffffff1673ffffffffffffffffffffffffffffffffffffffff16145b5b5b15610e1a57600182610e179190613066565b91505b8080610e2590613228565b915050610ac7565b5060008167ffffffffffffffff811115610e70577f4e487b7100000000000000000000000000000000000000000000000000000000600052604160045260246000fd5b604051908082528060200260200182016040528015610e9e5781602001602082028036833780820191505090505b5090506000805b60058054905081101561125157888015610f0957504260058281548110610ef5577f4e487b7100000000000000000000000000000000000000000000000000000000600052603260045260246000fd5b906000526020600020906009020160030154115b158015610f755750878015610f73575060058181548110610f53577f4e487b7100000000000000000000000000000000000000000000000000000000600052603260045260246000fd5b906000526020600020906009020160050160019054906101000a900460ff165b155b8015610fe05750868015610fde575060058181548110610fbe577f4e487b7100000000000000000000000000000000000000000000000000000000600052603260045260246000fd5b906000526020600020906009020160050160019054906101000a900460ff165b155b801561108e575085801561108c5750600073ffffffffffffffffffffffffffffffffffffffff1660058281548110611041577f4e487b7100000000000000000000000000000000000000000000000000000000600052603260045260246000fd5b906000526020600020906009020160080160009054906101000a900473ffffffffffffffffffffffffffffffffffffffff1673ffffffffffffffffffffffffffffffffffffffff1614155b155b80156111e357508a801561113857508b73ffffffffffffffffffffffffffffffffffffffff16600582815481106110ee577f4e487b7100000000000000000000000000000000000000000000000000000000600052603260045260246000fd5b906000526020600020906009020160070160009054906101000a900473ffffffffffffffffffffffffffffffffffffffff1673ffffffffffffffffffffffffffffffffffffffff16145b806111e257508980156111e157508b73ffffffffffffffffffffffffffffffffffffffff1660058281548110611197577f4e487b7100000000000000000000000000000000000000000000000000000000600052603260045260246000fd5b906000526020600020906009020160080160009054906101000a900473ffffffffffffffffffffffffffffffffffffffff1673ffffffffffffffffffffffffffffffffffffffff16145b5b5b1561123e5780838381518110611222577f4e487b7100000000000000000000000000000000000000000000000000000000600052603260045260246000fd5b60200260200101818152505060018261123b9190613066565b91505b808061124990613228565b915050610ea5565b50819350505050979650505050505050565b6005818154811061127357600080fd5b90600052602060002090600902016000915090508060000160009054906101000a900460ff16908060010154908060020154908060030154908060040154908060050160009054906101000a900460ff16908060050160019054906101000a900460ff16908060060154908060070160009054906101000a900473ffffffffffffffffffffffffffffffffffffffff16908060080160009054906101000a900473ffffffffffffffffffffffffffffffffffffffff1690508a565b60058181548110611368577f4e487b7100000000000000000000000000000000000000000000000000000000600052603260045260246000fd5b906000526020600020906009020160070160009054906101000a900473ffffffffffffffffffffffffffffffffffffffff1673ffffffffffffffffffffffffffffffffffffffff163373ffffffffffffffffffffffffffffffffffffffff1614611407576040517f08c379a00000000000000000000000000000000000000000000000000000000081526004016113fe90612eea565b60405180910390fd5b4260058281548110611442577f4e487b7100000000000000000000000000000000000000000000000000000000600052603260045260246000fd5b906000526020600020906009020160030154111580156114b8575060058181548110611497577f4e487b7100000000000000000000000000000000000000000000000000000000600052603260045260246000fd5b906000526020600020906009020160050160009054906101000a900460ff16155b801561151a5750600581815481106114f9577f4e487b7100000000000000000000000000000000000000000000000000000000600052603260045260246000fd5b906000526020600020906009020160050160019054906101000a900460ff16155b611559576040517f08c379a000000000000000000000000000000000000000000000000000000000815260040161155090612f4a565b60405180910390fd5b60058181548110611593577f4e487b7100000000000000000000000000000000000000000000000000000000600052603260045260246000fd5b906000526020600020906009020160070160009054906101000a900473ffffffffffffffffffffffffffffffffffffffff1673ffffffffffffffffffffffffffffffffffffffff166108fc60058381548110611618577f4e487b7100000000000000000000000000000000000000000000000000000000600052603260045260246000fd5b9060005260206000209060090201600401549081150290604051600060405180830381858888f19350505050158015611655573d6000803e3d6000fd5b50600160058281548110611692577f4e487b7100000000000000000000000000000000000000000000000000000000600052603260045260246000fd5b906000526020600020906009020160050160016101000a81548160ff02191690831515021790555050565b3373ffffffffffffffffffffffffffffffffffffffff166005828154811061170e577f4e487b7100000000000000000000000000000000000000000000000000000000600052603260045260246000fd5b906000526020600020906009020160080160009054906101000a900473ffffffffffffffffffffffffffffffffffffffff1673ffffffffffffffffffffffffffffffffffffffff1614611796576040517f08c379a000000000000000000000000000000000000000000000000000000000815260040161178d90612e6a565b60405180910390fd5b600581815481106117d0577f4e487b7100000000000000000000000000000000000000000000000000000000600052603260045260246000fd5b906000526020600020906009020160050160009054906101000a900460ff161561182f576040517f08c379a000000000000000000000000000000000000000000000000000000000815260040161182690612f6a565b60405180910390fd5b426005828154811061186a577f4e487b7100000000000000000000000000000000000000000000000000000000600052603260045260246000fd5b906000526020600020906009020160030154116118bc576040517f08c379a00000000000000000000000000000000000000000000000000000000081526004016118b390612e8a565b60405180910390fd5b60006118c6611d98565b9050600060058381548110611904577f4e487b7100000000000000000000000000000000000000000000000000000000600052603260045260246000fd5b90600052602060002090600902016004015460058481548110611950577f4e487b7100000000000000000000000000000000000000000000000000000000600052603260045260246000fd5b90600052602060002090600902016001015461196c91906130ed565b905060006402540be4008361198191906130ed565b8261198c91906130bc565b90508034146119d0576040517f08c379a00000000000000000000000000000000000000000000000000000000081526004016119c790612e2a565b60405180910390fd5b600180811115611a09577f4e487b7100000000000000000000000000000000000000000000000000000000600052602160045260246000fd5b60058581548110611a43577f4e487b7100000000000000000000000000000000000000000000000000000000600052603260045260246000fd5b906000526020600020906009020160000160009054906101000a900460ff166001811115611a9a577f4e487b7100000000000000000000000000000000000000000000000000000000600052602160045260246000fd5b1415611be95760058481548110611ada577f4e487b7100000000000000000000000000000000000000000000000000000000600052603260045260246000fd5b906000526020600020906009020160070160009054906101000a900473ffffffffffffffffffffffffffffffffffffffff1673ffffffffffffffffffffffffffffffffffffffff166108fc829081150290604051600060405180830381858888f19350505050158015611b51573d6000803e3d6000fd5b503373ffffffffffffffffffffffffffffffffffffffff166108fc60058681548110611ba6577f4e487b7100000000000000000000000000000000000000000000000000000000600052603260045260246000fd5b9060005260206000209060090201600401549081150290604051600060405180830381858888f19350505050158015611be3573d6000803e3d6000fd5b50611d2e565b3373ffffffffffffffffffffffffffffffffffffffff166108fc60058681548110611c3d577f4e487b7100000000000000000000000000000000000000000000000000000000600052603260045260246000fd5b9060005260206000209060090201600401549081150290604051600060405180830381858888f19350505050158015611c7a573d6000803e3d6000fd5b5060058481548110611cb5577f4e487b7100000000000000000000000000000000000000000000000000000000600052603260045260246000fd5b906000526020600020906009020160070160009054906101000a900473ffffffffffffffffffffffffffffffffffffffff1673ffffffffffffffffffffffffffffffffffffffff166108fc829081150290604051600060405180830381858888f19350505050158015611d2c573d6000803e3d6000fd5b505b600160058581548110611d6a577f4e487b7100000000000000000000000000000000000000000000000000000000600052603260045260246000fd5b906000526020600020906009020160050160006101000a81548160ff02191690831515021790555050505050565b60008060008060008060008054906101000a900473ffffffffffffffffffffffffffffffffffffffff1673ffffffffffffffffffffffffffffffffffffffff1663feaf968c6040518163ffffffff1660e01b815260040160a06040518083038186803b158015611e0757600080fd5b505afa158015611e1b573d6000803e3d6000fd5b505050506040513d601f19601f82011682018060405250810190611e3f91906127c2565b9450945094509450945060008211611e8c576040517f08c379a0000000000000000000000000000000000000000000000000000000008152600401611e8390612f0a565b60405180910390fd5b839550505050505090565b60058181548110611ed1577f4e487b7100000000000000000000000000000000000000000000000000000000600052603260045260246000fd5b906000526020600020906009020160070160009054906101000a900473ffffffffffffffffffffffffffffffffffffffff1673ffffffffffffffffffffffffffffffffffffffff163373ffffffffffffffffffffffffffffffffffffffff1614611f70576040517f08c379a0000000000000000000000000000000000000000000000000000000008152600401611f6790612eea565b60405180910390fd5b60058181548110611faa577f4e487b7100000000000000000000000000000000000000000000000000000000600052603260045260246000fd5b906000526020600020906009020160050160019054906101000a900460ff1615801561206d5750600073ffffffffffffffffffffffffffffffffffffffff1660058281548110612023577f4e487b7100000000000000000000000000000000000000000000000000000000600052603260045260246000fd5b906000526020600020906009020160080160009054906101000a900473ffffffffffffffffffffffffffffffffffffffff1673ffffffffffffffffffffffffffffffffffffffff16145b6120ac576040517f08c379a00000000000000000000000000000000000000000000000000000000081526004016120a390612f2a565b60405180910390fd5b600581815481106120e6577f4e487b7100000000000000000000000000000000000000000000000000000000600052603260045260246000fd5b906000526020600020906009020160070160009054906101000a900473ffffffffffffffffffffffffffffffffffffffff1673ffffffffffffffffffffffffffffffffffffffff166108fc6005838154811061216b577f4e487b7100000000000000000000000000000000000000000000000000000000600052603260045260246000fd5b9060005260206000209060090201600401549081150290604051600060405180830381858888f193505050501580156121a8573d6000803e3d6000fd5b506001600582815481106121e5577f4e487b7100000000000000000000000000000000000000000000000000000000600052603260045260246000fd5b906000526020600020906009020160050160016101000a81548160ff02191690831515021790555050565b6000600580549050905090565b60058181548110612257577f4e487b7100000000000000000000000000000000000000000000000000000000600052603260045260246000fd5b906000526020600020906009020160050160019054906101000a900460ff161580156122cd575042600582815481106122b9577f4e487b7100000000000000000000000000000000000000000000000000000000600052603260045260246000fd5b906000526020600020906009020160030154115b61230c576040517f08c379a000000000000000000000000000000000000000000000000000000000815260040161230390612e0a565b60405180910390fd5b60058181548110612346577f4e487b7100000000000000000000000000000000000000000000000000000000600052603260045260246000fd5b9060005260206000209060090201600201543414612399576040517f08c379a000000000000000000000000000000000000000000000000000000000815260040161239090612eca565b60405180910390fd5b600581815481106123d3577f4e487b7100000000000000000000000000000000000000000000000000000000600052603260045260246000fd5b906000526020600020906009020160070160009054906101000a900473ffffffffffffffffffffffffffffffffffffffff1673ffffffffffffffffffffffffffffffffffffffff166108fc60058381548110612458577f4e487b7100000000000000000000000000000000000000000000000000000000600052603260045260246000fd5b9060005260206000209060090201600201549081150290604051600060405180830381858888f19350505050158015612495573d6000803e3d6000fd5b5033600582815481106124d1577f4e487b7100000000000000000000000000000000000000000000000000000000600052603260045260246000fd5b906000526020600020906009020160080160006101000a81548173ffffffffffffffffffffffffffffffffffffffff021916908373ffffffffffffffffffffffffffffffffffffffff16021790555050565b600061253661253184612fd6565b612fa5565b90508281526020810184848401111561254e57600080fd5b6125598482856131e6565b509392505050565b60008135905061257081613341565b92915050565b60008135905061258581613358565b92915050565b60008151905061259a8161336f565b92915050565b600082601f8301126125b157600080fd5b81356125c1848260208601612523565b91505092915050565b6000813590506125d981613386565b92915050565b6000815190506125ee81613386565b92915050565b6000815190506126038161339d565b92915050565b600080600080600080600060e0888a03121561262457600080fd5b60006126328a828b01612561565b97505060206126438a828b01612576565b96505060406126548a828b01612576565b95505060606126658a828b01612576565b94505060806126768a828b01612576565b93505060a06126878a828b01612576565b92505060c06126988a828b01612576565b91505092959891949750929550565b600080600080608085870312156126bd57600080fd5b60006126cb87828801612576565b94505060206126dc87828801612576565b93505060406126ed87828801612576565b92505060606126fe87828801612576565b91505092959194509250565b60006020828403121561271c57600080fd5b600061272a848285016125ca565b91505092915050565b600080600080600060a0868803121561274b57600080fd5b6000612759888289016125ca565b955050602061276a888289016125ca565b945050604061277b888289016125ca565b935050606061278c888289016125ca565b925050608086013567ffffffffffffffff8111156127a957600080fd5b6127b5888289016125a0565b9150509295509295909350565b600080600080600060a086880312156127da57600080fd5b60006127e8888289016125f4565b95505060206127f98882890161258b565b945050604061280a888289016125df565b935050606061281b888289016125df565b925050608061282c888289016125f4565b9150509295509295909350565b60006128458383612d17565b60208301905092915050565b61285a81613159565b82525050565b600061286b82613016565b6128758185613039565b935061288083613006565b8060005b838110156128b15781516128988882612839565b97506128a38361302c565b925050600181019050612884565b5085935050505092915050565b6128c78161316b565b82525050565b6128d6816131d4565b82525050565b60006128e782613021565b6128f1818561305b565b93506129018185602086016131f5565b80840191505092915050565b600061291a602f8361304a565b91507f4f7074696f6e2069732063616e63656c65642f6578706972656420616e64206360008301527f616e6e6f7420626520626f7567687400000000000000000000000000000000006020830152604082019050919050565b600061298060268361304a565b91507f496e636f7272656374204c494e4b20616d6f756e742073656e7420746f20657860008301527f65726369736500000000000000000000000000000000000000000000000000006020830152604082019050919050565b60006129e6602c8361304a565b91507f4f6e6c792043414c4c20616e6420505554206f7074696f6e207479706573206160008301527f726520737570706f7274656400000000000000000000000000000000000000006020830152604082019050919050565b6000612a4c601a8361304a565b91507f596f7520646f206e6f74206f776e2074686973206f7074696f6e0000000000006000830152602082019050919050565b6000612a8c60118361304a565b91507f4f7074696f6e20697320657870697265640000000000000000000000000000006000830152602082019050919050565b6000612acc60228361304a565b91507f496e636f727265637420616d6f756e74206f66204d6174696320737570706c6960008301527f65640000000000000000000000000000000000000000000000000000000000006020830152604082019050919050565b6000612b32602a8361304a565b91507f496e636f727265637420616d6f756e74206f66204d415449432073656e74206660008301527f6f72207072656d69756d000000000000000000000000000000000000000000006020830152604082019050919050565b6000612b98601d8361304a565b91507f596f7520646964206e6f742077726974652074686973206f7074696f6e0000006000830152602082019050919050565b6000612bd860128361304a565b91507f526f756e64206e6f7420636f6d706c65746500000000000000000000000000006000830152602082019050919050565b6000612c18601e8361304a565b91507f54686973206f7074696f6e2063616e6e6f742062652063616e63656c656400006000830152602082019050919050565b6000612c5860288361304a565b91507f54686973206f7074696f6e206973206e6f7420656c696769626c6520666f722060008301527f77697468647261770000000000000000000000000000000000000000000000006020830152604082019050919050565b6000612cbe60218361304a565b91507f4f7074696f6e2068617320616c7265616479206265656e20657865726369736560008301527f64000000000000000000000000000000000000000000000000000000000000006020830152604082019050919050565b612d20816131b4565b82525050565b612d2f816131b4565b82525050565b6000612d4182846128dc565b915081905092915050565b60006020820190508181036000830152612d668184612860565b905092915050565b600061014082019050612d84600083018d6128cd565b612d91602083018c612d26565b612d9e604083018b612d26565b612dab606083018a612d26565b612db86080830189612d26565b612dc560a08301886128be565b612dd260c08301876128be565b612ddf60e0830186612d26565b612ded610100830185612851565b612dfb610120830184612851565b9b9a5050505050505050505050565b60006020820190508181036000830152612e238161290d565b9050919050565b60006020820190508181036000830152612e4381612973565b9050919050565b60006020820190508181036000830152612e63816129d9565b9050919050565b60006020820190508181036000830152612e8381612a3f565b9050919050565b60006020820190508181036000830152612ea381612a7f565b9050919050565b60006020820190508181036000830152612ec381612abf565b9050919050565b60006020820190508181036000830152612ee381612b25565b9050919050565b60006020820190508181036000830152612f0381612b8b565b9050919050565b60006020820190508181036000830152612f2381612bcb565b9050919050565b60006020820190508181036000830152612f4381612c0b565b9050919050565b60006020820190508181036000830152612f6381612c4b565b9050919050565b60006020820190508181036000830152612f8381612cb1565b9050919050565b6000602082019050612f9f6000830184612d26565b92915050565b6000604051905081810181811067ffffffffffffffff82111715612fcc57612fcb6132fe565b5b8060405250919050565b600067ffffffffffffffff821115612ff157612ff06132fe565b5b601f19601f8301169050602081019050919050565b6000819050602082019050919050565b600081519050919050565b600081519050919050565b6000602082019050919050565b600082825260208201905092915050565b600082825260208201905092915050565b600081905092915050565b6000613071826131b4565b915061307c836131b4565b9250827fffffffffffffffffffffffffffffffffffffffffffffffffffffffffffffffff038211156130b1576130b0613271565b5b828201905092915050565b60006130c7826131b4565b91506130d2836131b4565b9250826130e2576130e16132a0565b5b828204905092915050565b60006130f8826131b4565b9150613103836131b4565b9250817fffffffffffffffffffffffffffffffffffffffffffffffffffffffffffffffff048311821515161561313c5761313b613271565b5b828202905092915050565b600061315282613194565b9050919050565b600061316482613194565b9050919050565b60008115159050919050565b60008190506131858261332d565b919050565b6000819050919050565b600073ffffffffffffffffffffffffffffffffffffffff82169050919050565b6000819050919050565b600069ffffffffffffffffffff82169050919050565b60006131df82613177565b9050919050565b82818337600083830152505050565b60005b838110156132135780820151818401526020810190506131f8565b83811115613222576000848401525b50505050565b6000613233826131b4565b91507fffffffffffffffffffffffffffffffffffffffffffffffffffffffffffffffff82141561326657613265613271565b5b600182019050919050565b7f4e487b7100000000000000000000000000000000000000000000000000000000600052601160045260246000fd5b7f4e487b7100000000000000000000000000000000000000000000000000000000600052601260045260246000fd5b7f4e487b7100000000000000000000000000000000000000000000000000000000600052602160045260246000fd5b7f4e487b7100000000000000000000000000000000000000000000000000000000600052604160045260246000fd5b6002811061333e5761333d6132cf565b5b50565b61334a81613147565b811461335557600080fd5b50565b6133618161316b565b811461336c57600080fd5b50565b6133788161318a565b811461338357600080fd5b50565b61338f816131b4565b811461339a57600080fd5b50565b6133a6816131be565b81146133b157600080fd5b5056fea2646970667358221220833db31533b70df16c4de158c5e2f29f3dd2b43d81788e98ceeb363b06f9857c64736f6c63430008000033",
  "immutableReferences": {},
  "source": "// SPDX-License-Identifier: MIT\n\npragma solidity 0.8.0;\n\nimport \"./dependencies/LinkTokenInterface.sol\";\nimport \"./dependencies/AggregatorV3Interface.sol\";\n\ncontract OptionTrades {\n    //Pricefeed interfaces\n    AggregatorV3Interface internal maticFeed;\n    //Interface for LINK token functions\n    LinkTokenInterface internal LINK;\n    address payable contractAddr;\n\n    bytes32 callHash = keccak256(abi.encodePacked(\"CALL\"));\n    bytes32 putHash = keccak256(abi.encodePacked(\"PUT\"));\n\n    enum OptionType { PUT, CALL }\n    \n    //Options stored in arrays of structs\n    struct option {\n        OptionType optionType; //Helper to show last updated cost to exercise\n        uint strike; //Price in USD (18 decimal places) option allows buyer to purchase tokens at\n        uint premium; //Fee in contract token that option writer charges\n        uint expiry; //Unix timestamp of expiration time\n        uint amount; //Amount of tokens the option contract is for\n        bool exercised; //Has option been exercised\n        bool canceled; //Has option been canceled\n        uint id; //Unique ID of option, also array index\n        address payable writer; //Issuer of option\n        address payable buyer; //Buyer of option\n    }\n    option[] public maticOpts;\n\n    //Kovan feeds: https://docs.chain.link/docs/reference-contracts\n    constructor() public {\n        // -- Matic --\n        \n        //MATIC/USD feed\n        maticFeed = AggregatorV3Interface(0xAB594600376Ec9fD91F8e885dADF0CE036862dE0);\n        //LINK token address\n        LINK = LinkTokenInterface(0xb0897686c545045aFc77CF20eC7A532E3120E0F1);\n        /**/\n\n        // -- Mumbai --\n        /*\n        //MATIC/USD feed\n        maticFeed = AggregatorV3Interface(0xd0D5e3DB44DE05E9F294BB0a3bEEaF030DE24Ada);\n        //LINK token address\n        LINK = LinkTokenInterface(0x326C977E6efc84E512bB9C30f76E30c160eD06FB);\n        contractAddr = payable(address(this));\n        */\n    }\n    \n    //Returns the latest MATIC price\n    function getMaticPrice() public view returns (uint) {\n        (\n            uint80 roundID, \n            int price,\n            uint startedAt,\n            uint timeStamp,\n            uint80 answeredInRound\n        ) = maticFeed.latestRoundData();\n        // If the round is not complete yet, timestamp is 0\n        require(timeStamp > 0, \"Round not complete\");\n        //Price should never be negative thus cast int to unit is ok\n        //Price is 8 decimal places and will require 1e10 correction later to 18 places\n        return uint(price);\n    }\n    \n    //Allows user to write a covered call option\n    //Takes which token, a strike price(USD per token w/18 decimal places), premium(same unit as token), expiration time(unix) and how many tokens the contract is for\n    function writeOption(uint strike, uint premium, uint expiry, uint tknAmt, string memory optionType) public payable {\n        bytes32 optionTypeHash = keccak256(abi.encodePacked(optionType));\n        require(optionTypeHash == callHash || optionTypeHash == putHash, \"Only CALL and PUT option types are supported\");\n        require(msg.value == tknAmt, \"Incorrect amount of Matic supplied\"); \n        uint256 maticPrice = getMaticPrice();\n\n        OptionType optionTypeEnum;\n        if(optionTypeHash == callHash)\n        {\n            optionTypeEnum = OptionType.CALL;\n        }else\n        {\n            optionTypeEnum = OptionType.PUT;\n        }\n        maticOpts.push(option(optionTypeEnum, strike, premium, expiry, tknAmt, false, false, maticOpts.length, payable(msg.sender), payable(address(0))));\n    }\n    \n    //Allows option writer to cancel and get their funds back from an unpurchased option\n    function cancelOption(uint ID) public payable {\n        require(msg.sender == maticOpts[ID].writer, \"You did not write this option\");\n        //Must not have already been canceled or bought\n        require(!maticOpts[ID].canceled && maticOpts[ID].buyer == address(0), \"This option cannot be canceled\");\n        maticOpts[ID].writer.transfer(maticOpts[ID].amount);\n        maticOpts[ID].canceled = true;\n    }\n    \n    //Purchase a call option, needs desired token, ID of option and payment\n    function buyOption(uint ID) public payable {\n        require(!maticOpts[ID].canceled && maticOpts[ID].expiry > block.timestamp, \"Option is canceled/expired and cannot be bought\");\n        //Transfer premium payment from buyer\n        require(msg.value == maticOpts[ID].premium, \"Incorrect amount of MATIC sent for premium\");\n        //Transfer premium payment to writer\n        maticOpts[ID].writer.transfer(maticOpts[ID].premium);\n        maticOpts[ID].buyer = payable(msg.sender);\n    }\n    \n    //Exercise your call option, needs desired token, ID of option and payment\n    function exercise(uint ID) public payable {\n        //If not expired and not already exercised, allow option owner to exercise\n        //To exercise, the strike value*amount equivalent paid to writer (from buyer) and amount of tokens in the contract paid to buyer\n        require(maticOpts[ID].buyer == msg.sender, \"You do not own this option\");\n        require(!maticOpts[ID].exercised, \"Option has already been exercised\");\n        require(maticOpts[ID].expiry > block.timestamp, \"Option is expired\");\n        //Conditions are met, proceed to payouts\n        uint256 maticPrice = getMaticPrice();\n        //Cost to exercise\n        uint exerciseVal = maticOpts[ID].strike*maticOpts[ID].amount;\n        //Equivalent MATIC value using Chainlink feed\n        uint equivMatic = exerciseVal / (maticPrice * 10**10); //move decimal 10 places right to account for 8 places of pricefeed\n        //Buyer exercises option by paying strike*amount equivalent MATIC value\n        require(msg.value == equivMatic, \"Incorrect LINK amount sent to exercise\");\n        if(maticOpts[ID].optionType == OptionType.CALL)\n        {\n            //Pay writer the exercise cost\n            maticOpts[ID].writer.transfer(equivMatic);\n            //Pay buyer contract amount of MATIC\n            payable(msg.sender).transfer(maticOpts[ID].amount);\n        }else\n        {\n            //Pay writer contract amount of MATIC\n            payable(msg.sender).transfer(maticOpts[ID].amount);\n            //Pay buyer the exercise cost\n            maticOpts[ID].writer.transfer(equivMatic);\n        }\n        maticOpts[ID].exercised = true;\n    }\n    \n    //Allows writer to retrieve funds from an expired, non-exercised, non-canceled option\n    function retrieveExpiredFunds(uint ID) public payable {\n        require(msg.sender == maticOpts[ID].writer, \"You did not write this option\");\n        //Must be expired, not exercised and not canceled\n        require(maticOpts[ID].expiry <= block.timestamp && !maticOpts[ID].exercised && !maticOpts[ID].canceled, \"This option is not eligible for withdraw\");\n        maticOpts[ID].writer.transfer(maticOpts[ID].amount);\n        //Repurposing canceled flag to prevent more than one withdraw\n        maticOpts[ID].canceled = true;\n    }\n    \n    //This is a helper function to help the user see what the cost to exercise an option is currently before they do so\n    //Updates lastestCost member of option which is publicly viewable\n    function getExerciseCost(uint ID) public view returns(uint256) {\n        uint256 maticPrice = getMaticPrice();\n        return (maticOpts[ID].strike * maticOpts[ID].amount) / (maticPrice * 10**10);\n    }\n\n    function getMaticOptsLength() public view returns (uint256 maticOptsLength) {\n        return maticOpts.length;\n    }\n\n    function getMaticOptsByAddress(\n        address _address,\n        bool include_if_writer,\n        bool include_if_buyer,\n        bool exclude_expired,\n        bool exclude_canceled,\n        bool exclude_exercised,\n        bool exclude_bought\n    ) public view returns (uint256[] memory optionIds) {\n        uint resultLength = 0;\n        for (uint i = 0; i < maticOpts.length; i++)\n        {\n            if(\n                !(exclude_expired && maticOpts[i].expiry > block.timestamp)\n                && !(exclude_canceled && maticOpts[i].canceled)\n                && !(exclude_exercised && maticOpts[i].canceled)\n                && !(exclude_bought && maticOpts[i].buyer != address(0))\n                && ((include_if_writer && maticOpts[i].writer == _address)\n                    || include_if_buyer && maticOpts[i].buyer == _address)\n            )\n            {\n                resultLength+=1;\n            }\n        }\n        uint[] memory result = new uint[](resultLength);\n        uint result_iterator = 0;\n        for (uint i = 0; i < maticOpts.length; i++)\n        {\n            if(\n                !(exclude_expired && maticOpts[i].expiry > block.timestamp)\n                && !(exclude_canceled && maticOpts[i].canceled)\n                && !(exclude_exercised && maticOpts[i].canceled)\n                && !(exclude_bought && maticOpts[i].buyer != address(0))\n                && ((include_if_writer && maticOpts[i].writer == _address)\n                    || include_if_buyer && maticOpts[i].buyer == _address)\n            )\n            {\n                result[result_iterator] = i;\n                result_iterator += 1;\n            }\n        }\n        return result;\n    }\n\n    function getMaticOpts(\n        bool exclude_expired,\n        bool exclude_canceled,\n        bool exclude_exercised,\n        bool exclude_bought\n    ) public view returns (uint256[] memory optionIds) {\n        uint resultLength = 0;\n        for (uint i = 0; i < maticOpts.length; i++)\n        {\n            if(\n                !(exclude_expired && maticOpts[i].expiry > block.timestamp)\n                && !(exclude_canceled && maticOpts[i].canceled)\n                && !(exclude_exercised && maticOpts[i].canceled)\n                && !(exclude_bought && maticOpts[i].buyer != address(0))\n            )\n            {\n                resultLength+=1;\n            }\n        }\n        uint[] memory result = new uint[](resultLength);\n        uint result_iterator = 0;\n        for (uint i = 0; i < maticOpts.length; i++)\n        {\n            if(\n                !(exclude_expired && maticOpts[i].expiry > block.timestamp)\n                && !(exclude_canceled && maticOpts[i].canceled)\n                && !(exclude_exercised && maticOpts[i].canceled)\n            )\n            {\n                result[result_iterator] = i;\n                result_iterator += 1;\n            }\n        }\n        return result;\n    }\n}",
  "sourcePath": "/home/turupawn/Projects/Blockchain/MaticOptionTrading/contracts/OptionTrades.sol",
  "compiler": {
    "name": "solc",
    "version": "0.8.0+commit.c7dfd78e.Emscripten.clang"
  },
  "schemaVersion": "3.3.4",
  "updatedAt": "2021-05-22T06:13:07.425Z",
  "networkType": "ethereum",
  "devdoc": {
    "kind": "dev",
    "methods": {},
    "version": 1
  },
  "userdoc": {
    "kind": "user",
    "methods": {},
    "version": 1
  }
}