{
  "contractName": "OptionTrades",
  "abi": [
    {
      "inputs": [],
      "stateMutability": "nonpayable",
      "type": "constructor"
    },
    {
      "inputs": [
        {
          "internalType": "uint256",
          "name": "",
          "type": "uint256"
        }
      ],
      "name": "maticOpts",
      "outputs": [
        {
          "internalType": "enum OptionTrades.OptionType",
          "name": "optionType",
          "type": "uint8"
        },
        {
          "internalType": "uint256",
          "name": "strike",
          "type": "uint256"
        },
        {
          "internalType": "uint256",
          "name": "premium",
          "type": "uint256"
        },
        {
          "internalType": "uint256",
          "name": "expiry",
          "type": "uint256"
        },
        {
          "internalType": "uint256",
          "name": "amount",
          "type": "uint256"
        },
        {
          "internalType": "bool",
          "name": "exercised",
          "type": "bool"
        },
        {
          "internalType": "bool",
          "name": "canceled",
          "type": "bool"
        },
        {
          "internalType": "uint256",
          "name": "id",
          "type": "uint256"
        },
        {
          "internalType": "uint256",
          "name": "latestCost",
          "type": "uint256"
        },
        {
          "internalType": "address payable",
          "name": "writer",
          "type": "address"
        },
        {
          "internalType": "address payable",
          "name": "buyer",
          "type": "address"
        }
      ],
      "stateMutability": "view",
      "type": "function",
      "constant": true
    },
    {
      "inputs": [],
      "name": "getMaticPrice",
      "outputs": [
        {
          "internalType": "uint256",
          "name": "",
          "type": "uint256"
        }
      ],
      "stateMutability": "view",
      "type": "function",
      "constant": true
    },
    {
      "inputs": [
        {
          "internalType": "uint256",
          "name": "strike",
          "type": "uint256"
        },
        {
          "internalType": "uint256",
          "name": "premium",
          "type": "uint256"
        },
        {
          "internalType": "uint256",
          "name": "expiry",
          "type": "uint256"
        },
        {
          "internalType": "uint256",
          "name": "tknAmt",
          "type": "uint256"
        },
        {
          "internalType": "string",
          "name": "optionType",
          "type": "string"
        }
      ],
      "name": "writeOption",
      "outputs": [],
      "stateMutability": "payable",
      "type": "function",
      "payable": true
    },
    {
      "inputs": [
        {
          "internalType": "uint256",
          "name": "ID",
          "type": "uint256"
        }
      ],
      "name": "cancelOption",
      "outputs": [],
      "stateMutability": "payable",
      "type": "function",
      "payable": true
    },
    {
      "inputs": [
        {
          "internalType": "uint256",
          "name": "ID",
          "type": "uint256"
        }
      ],
      "name": "buyOption",
      "outputs": [],
      "stateMutability": "payable",
      "type": "function",
      "payable": true
    },
    {
      "inputs": [
        {
          "internalType": "uint256",
          "name": "ID",
          "type": "uint256"
        }
      ],
      "name": "exercise",
      "outputs": [],
      "stateMutability": "payable",
      "type": "function",
      "payable": true
    },
    {
      "inputs": [
        {
          "internalType": "uint256",
          "name": "ID",
          "type": "uint256"
        }
      ],
      "name": "retrieveExpiredFunds",
      "outputs": [],
      "stateMutability": "payable",
      "type": "function",
      "payable": true
    },
    {
      "inputs": [
        {
          "internalType": "uint256",
          "name": "ID",
          "type": "uint256"
        }
      ],
      "name": "updateExerciseCost",
      "outputs": [],
      "stateMutability": "nonpayable",
      "type": "function"
    },
    {
      "inputs": [],
      "name": "getMaticOptsLength",
      "outputs": [
        {
          "internalType": "uint256",
          "name": "maticOptsLength",
          "type": "uint256"
        }
      ],
      "stateMutability": "nonpayable",
      "type": "function"
    }
  ],
  "bytecode": "0x60806040526040516020016200001590620001f1565b604051602081830303815290604052805190602001206004556040516020016200003f90620001da565b604051602081830303815290604052805190602001206005553480156200006557600080fd5b5073d0d5e3db44de05e9f294bb0a3beeaf030de24ada6000806101000a81548173ffffffffffffffffffffffffffffffffffffffff021916908373ffffffffffffffffffffffffffffffffffffffff16021790555073326c977e6efc84e512bb9c30f76e30c160ed06fb600160006101000a81548173ffffffffffffffffffffffffffffffffffffffff021916908373ffffffffffffffffffffffffffffffffffffffff16021790555030600360006101000a81548173ffffffffffffffffffffffffffffffffffffffff021916908373ffffffffffffffffffffffffffffffffffffffff16021790555062000213565b60006200016560038362000208565b91507f50555400000000000000000000000000000000000000000000000000000000006000830152600382019050919050565b6000620001a760048362000208565b91507f43414c4c000000000000000000000000000000000000000000000000000000006000830152600482019050919050565b6000620001e78262000156565b9150819050919050565b6000620001fe8262000198565b9150819050919050565b600081905092915050565b61251f80620002236000396000f3fe6080604052600436106100865760003560e01c8063c83d324811610059578063c83d324814610126578063db99e79314610151578063de6bf6351461017a578063f1356ffc14610196578063fba225b9146101c157610086565b80633a39f6231461008b57806363259516146100a7578063790eee2e146100ee578063b07f0a411461010a575b600080fd5b6100a560048036038101906100a09190611a18565b6101dd565b005b3480156100b357600080fd5b506100ce60048036038101906100c991906119ef565b61053f565b6040516100e59b9a99989796959493929190611fac565b60405180910390f35b610108600480360381019061010391906119ef565b610610565b005b610124600480360381019061011f91906119ef565b61099f565b005b34801561013257600080fd5b5061013b611077565b60405161014891906121d7565b60405180910390f35b34801561015d57600080fd5b50610178600480360381019061017391906119ef565b611176565b005b610194600480360381019061018f91906119ef565b61128f565b005b3480156101a257600080fd5b506101ab611608565b6040516101b891906121d7565b60405180910390f35b6101db60048036038101906101d691906119ef565b611615565b005b6000816040516020016101f09190611f95565b604051602081830303815290604052805190602001209050600454811480610219575060055481145b610258576040517f08c379a000000000000000000000000000000000000000000000000000000000815260040161024f90612097565b60405180910390fd5b82341461029a576040517f08c379a0000000000000000000000000000000000000000000000000000000008152600401610291906120f7565b60405180910390fd5b6102a2611923565b60006004548214156102b757600190506102bc565b600090505b60006402540be4006002546102d191906122ab565b85896102dd91906122ab565b6102e7919061227a565b90506006604051806101600160405280846001811115610330577f4e487b7100000000000000000000000000000000000000000000000000000000600052602160045260246000fd5b81526020018a815260200189815260200188815260200187815260200160001515815260200160001515815260200160068054905081526020018381526020013373ffffffffffffffffffffffffffffffffffffffff168152602001600073ffffffffffffffffffffffffffffffffffffffff1681525090806001815401808255809150506001900390600052602060002090600a020160009091909190915060008201518160000160006101000a81548160ff02191690836001811115610421577f4e487b7100000000000000000000000000000000000000000000000000000000600052602160045260246000fd5b02179055506020820151816001015560408201518160020155606082015181600301556080820151816004015560a08201518160050160006101000a81548160ff02191690831515021790555060c08201518160050160016101000a81548160ff02191690831515021790555060e0820151816006015561010082015181600701556101208201518160080160006101000a81548173ffffffffffffffffffffffffffffffffffffffff021916908373ffffffffffffffffffffffffffffffffffffffff1602179055506101408201518160090160006101000a81548173ffffffffffffffffffffffffffffffffffffffff021916908373ffffffffffffffffffffffffffffffffffffffff16021790555050505050505050505050565b6006818154811061054f57600080fd5b90600052602060002090600a02016000915090508060000160009054906101000a900460ff16908060010154908060020154908060030154908060040154908060050160009054906101000a900460ff16908060050160019054906101000a900460ff16908060060154908060070154908060080160009054906101000a900473ffffffffffffffffffffffffffffffffffffffff16908060090160009054906101000a900473ffffffffffffffffffffffffffffffffffffffff1690508b565b6006818154811061064a577f4e487b7100000000000000000000000000000000000000000000000000000000600052603260045260246000fd5b90600052602060002090600a020160080160009054906101000a900473ffffffffffffffffffffffffffffffffffffffff1673ffffffffffffffffffffffffffffffffffffffff163373ffffffffffffffffffffffffffffffffffffffff16146106e9576040517f08c379a00000000000000000000000000000000000000000000000000000000081526004016106e090612137565b60405180910390fd5b4260068281548110610724577f4e487b7100000000000000000000000000000000000000000000000000000000600052603260045260246000fd5b90600052602060002090600a0201600301541115801561079a575060068181548110610779577f4e487b7100000000000000000000000000000000000000000000000000000000600052603260045260246000fd5b90600052602060002090600a020160050160009054906101000a900460ff16155b80156107fc5750600681815481106107db577f4e487b7100000000000000000000000000000000000000000000000000000000600052603260045260246000fd5b90600052602060002090600a020160050160019054906101000a900460ff16155b61083b576040517f08c379a000000000000000000000000000000000000000000000000000000000815260040161083290612197565b60405180910390fd5b60068181548110610875577f4e487b7100000000000000000000000000000000000000000000000000000000600052603260045260246000fd5b90600052602060002090600a020160080160009054906101000a900473ffffffffffffffffffffffffffffffffffffffff1673ffffffffffffffffffffffffffffffffffffffff166108fc600683815481106108fa577f4e487b7100000000000000000000000000000000000000000000000000000000600052603260045260246000fd5b90600052602060002090600a0201600401549081150290604051600060405180830381858888f19350505050158015610937573d6000803e3d6000fd5b50600160068281548110610974577f4e487b7100000000000000000000000000000000000000000000000000000000600052603260045260246000fd5b90600052602060002090600a020160050160016101000a81548160ff02191690831515021790555050565b3373ffffffffffffffffffffffffffffffffffffffff16600682815481106109f0577f4e487b7100000000000000000000000000000000000000000000000000000000600052603260045260246000fd5b90600052602060002090600a020160090160009054906101000a900473ffffffffffffffffffffffffffffffffffffffff1673ffffffffffffffffffffffffffffffffffffffff1614610a78576040517f08c379a0000000000000000000000000000000000000000000000000000000008152600401610a6f906120b7565b60405180910390fd5b60068181548110610ab2577f4e487b7100000000000000000000000000000000000000000000000000000000600052603260045260246000fd5b90600052602060002090600a020160050160009054906101000a900460ff1615610b11576040517f08c379a0000000000000000000000000000000000000000000000000000000008152600401610b08906121b7565b60405180910390fd5b4260068281548110610b4c577f4e487b7100000000000000000000000000000000000000000000000000000000600052603260045260246000fd5b90600052602060002090600a02016003015411610b9e576040517f08c379a0000000000000000000000000000000000000000000000000000000008152600401610b95906120d7565b60405180910390fd5b610ba6611923565b600060068281548110610be2577f4e487b7100000000000000000000000000000000000000000000000000000000600052603260045260246000fd5b90600052602060002090600a02016004015460068381548110610c2e577f4e487b7100000000000000000000000000000000000000000000000000000000600052603260045260246000fd5b90600052602060002090600a020160010154610c4a91906122ab565b905060006402540be400600254610c6191906122ab565b82610c6c919061227a565b9050803414610cb0576040517f08c379a0000000000000000000000000000000000000000000000000000000008152600401610ca790612077565b60405180910390fd5b600180811115610ce9577f4e487b7100000000000000000000000000000000000000000000000000000000600052602160045260246000fd5b60068481548110610d23577f4e487b7100000000000000000000000000000000000000000000000000000000600052603260045260246000fd5b90600052602060002090600a020160000160009054906101000a900460ff166001811115610d7a577f4e487b7100000000000000000000000000000000000000000000000000000000600052602160045260246000fd5b1415610ec95760068381548110610dba577f4e487b7100000000000000000000000000000000000000000000000000000000600052603260045260246000fd5b90600052602060002090600a020160080160009054906101000a900473ffffffffffffffffffffffffffffffffffffffff1673ffffffffffffffffffffffffffffffffffffffff166108fc829081150290604051600060405180830381858888f19350505050158015610e31573d6000803e3d6000fd5b503373ffffffffffffffffffffffffffffffffffffffff166108fc60068581548110610e86577f4e487b7100000000000000000000000000000000000000000000000000000000600052603260045260246000fd5b90600052602060002090600a0201600401549081150290604051600060405180830381858888f19350505050158015610ec3573d6000803e3d6000fd5b5061100e565b3373ffffffffffffffffffffffffffffffffffffffff166108fc60068581548110610f1d577f4e487b7100000000000000000000000000000000000000000000000000000000600052603260045260246000fd5b90600052602060002090600a0201600401549081150290604051600060405180830381858888f19350505050158015610f5a573d6000803e3d6000fd5b5060068381548110610f95577f4e487b7100000000000000000000000000000000000000000000000000000000600052603260045260246000fd5b90600052602060002090600a020160080160009054906101000a900473ffffffffffffffffffffffffffffffffffffffff1673ffffffffffffffffffffffffffffffffffffffff166108fc829081150290604051600060405180830381858888f1935050505015801561100c573d6000803e3d6000fd5b505b60016006848154811061104a577f4e487b7100000000000000000000000000000000000000000000000000000000600052603260045260246000fd5b90600052602060002090600a020160050160006101000a81548160ff021916908315150217905550505050565b60008060008060008060008054906101000a900473ffffffffffffffffffffffffffffffffffffffff1673ffffffffffffffffffffffffffffffffffffffff1663feaf968c6040518163ffffffff1660e01b815260040160a06040518083038186803b1580156110e657600080fd5b505afa1580156110fa573d6000803e3d6000fd5b505050506040513d601f19601f8201168201806040525081019061111e9190611aa7565b945094509450945094506000821161116b576040517f08c379a000000000000000000000000000000000000000000000000000000000815260040161116290612157565b60405180910390fd5b839550505050505090565b61117e611923565b6402540be40060025461119191906122ab565b600682815481106111cb577f4e487b7100000000000000000000000000000000000000000000000000000000600052603260045260246000fd5b90600052602060002090600a02016004015460068381548110611217577f4e487b7100000000000000000000000000000000000000000000000000000000600052603260045260246000fd5b90600052602060002090600a02016001015461123391906122ab565b61123d919061227a565b60068281548110611277577f4e487b7100000000000000000000000000000000000000000000000000000000600052603260045260246000fd5b90600052602060002090600a02016007018190555050565b600681815481106112c9577f4e487b7100000000000000000000000000000000000000000000000000000000600052603260045260246000fd5b90600052602060002090600a020160080160009054906101000a900473ffffffffffffffffffffffffffffffffffffffff1673ffffffffffffffffffffffffffffffffffffffff163373ffffffffffffffffffffffffffffffffffffffff1614611368576040517f08c379a000000000000000000000000000000000000000000000000000000000815260040161135f90612137565b60405180910390fd5b600681815481106113a2577f4e487b7100000000000000000000000000000000000000000000000000000000600052603260045260246000fd5b90600052602060002090600a020160050160019054906101000a900460ff161580156114655750600073ffffffffffffffffffffffffffffffffffffffff166006828154811061141b577f4e487b7100000000000000000000000000000000000000000000000000000000600052603260045260246000fd5b90600052602060002090600a020160090160009054906101000a900473ffffffffffffffffffffffffffffffffffffffff1673ffffffffffffffffffffffffffffffffffffffff16145b6114a4576040517f08c379a000000000000000000000000000000000000000000000000000000000815260040161149b90612177565b60405180910390fd5b600681815481106114de577f4e487b7100000000000000000000000000000000000000000000000000000000600052603260045260246000fd5b90600052602060002090600a020160080160009054906101000a900473ffffffffffffffffffffffffffffffffffffffff1673ffffffffffffffffffffffffffffffffffffffff166108fc60068381548110611563577f4e487b7100000000000000000000000000000000000000000000000000000000600052603260045260246000fd5b90600052602060002090600a0201600401549081150290604051600060405180830381858888f193505050501580156115a0573d6000803e3d6000fd5b506001600682815481106115dd577f4e487b7100000000000000000000000000000000000000000000000000000000600052603260045260246000fd5b90600052602060002090600a020160050160016101000a81548160ff02191690831515021790555050565b6000600680549050905090565b61161d611923565b60068181548110611657577f4e487b7100000000000000000000000000000000000000000000000000000000600052603260045260246000fd5b90600052602060002090600a020160050160019054906101000a900460ff161580156116cd575042600682815481106116b9577f4e487b7100000000000000000000000000000000000000000000000000000000600052603260045260246000fd5b90600052602060002090600a020160030154115b61170c576040517f08c379a000000000000000000000000000000000000000000000000000000000815260040161170390612057565b60405180910390fd5b60068181548110611746577f4e487b7100000000000000000000000000000000000000000000000000000000600052603260045260246000fd5b90600052602060002090600a0201600201543414611799576040517f08c379a000000000000000000000000000000000000000000000000000000000815260040161179090612117565b60405180910390fd5b600681815481106117d3577f4e487b7100000000000000000000000000000000000000000000000000000000600052603260045260246000fd5b90600052602060002090600a020160080160009054906101000a900473ffffffffffffffffffffffffffffffffffffffff1673ffffffffffffffffffffffffffffffffffffffff166108fc60068381548110611858577f4e487b7100000000000000000000000000000000000000000000000000000000600052603260045260246000fd5b90600052602060002090600a0201600201549081150290604051600060405180830381858888f19350505050158015611895573d6000803e3d6000fd5b5033600682815481106118d1577f4e487b7100000000000000000000000000000000000000000000000000000000600052603260045260246000fd5b90600052602060002090600a020160090160006101000a81548173ffffffffffffffffffffffffffffffffffffffff021916908373ffffffffffffffffffffffffffffffffffffffff16021790555050565b61192b611077565b600281905550565b600061194661194184612223565b6121f2565b90508281526020810184848401111561195e57600080fd5b611969848285612392565b509392505050565b600081519050611980816124a4565b92915050565b600082601f83011261199757600080fd5b81356119a7848260208601611933565b91505092915050565b6000813590506119bf816124bb565b92915050565b6000815190506119d4816124bb565b92915050565b6000815190506119e9816124d2565b92915050565b600060208284031215611a0157600080fd5b6000611a0f848285016119b0565b91505092915050565b600080600080600060a08688031215611a3057600080fd5b6000611a3e888289016119b0565b9550506020611a4f888289016119b0565b9450506040611a60888289016119b0565b9350506060611a71888289016119b0565b925050608086013567ffffffffffffffff811115611a8e57600080fd5b611a9a88828901611986565b9150509295509295909350565b600080600080600060a08688031215611abf57600080fd5b6000611acd888289016119da565b9550506020611ade88828901611971565b9450506040611aef888289016119c5565b9350506060611b00888289016119c5565b9250506080611b11888289016119da565b9150509295509295909350565b611b2781612305565b82525050565b611b3681612317565b82525050565b611b4581612380565b82525050565b6000611b5682612253565b611b60818561226f565b9350611b708185602086016123a1565b80840191505092915050565b6000611b89602f8361225e565b91507f4f7074696f6e2069732063616e63656c65642f6578706972656420616e64206360008301527f616e6e6f7420626520626f7567687400000000000000000000000000000000006020830152604082019050919050565b6000611bef60268361225e565b91507f496e636f7272656374204c494e4b20616d6f756e742073656e7420746f20657860008301527f65726369736500000000000000000000000000000000000000000000000000006020830152604082019050919050565b6000611c55602c8361225e565b91507f4f6e6c792043414c4c20616e6420505554206f7074696f6e207479706573206160008301527f726520737570706f7274656400000000000000000000000000000000000000006020830152604082019050919050565b6000611cbb601a8361225e565b91507f596f7520646f206e6f74206f776e2074686973206f7074696f6e0000000000006000830152602082019050919050565b6000611cfb60118361225e565b91507f4f7074696f6e20697320657870697265640000000000000000000000000000006000830152602082019050919050565b6000611d3b60228361225e565b91507f496e636f727265637420616d6f756e74206f66204d6174696320737570706c6960008301527f65640000000000000000000000000000000000000000000000000000000000006020830152604082019050919050565b6000611da1602a8361225e565b91507f496e636f727265637420616d6f756e74206f66204d415449432073656e74206660008301527f6f72207072656d69756d000000000000000000000000000000000000000000006020830152604082019050919050565b6000611e07601d8361225e565b91507f596f7520646964206e6f742077726974652074686973206f7074696f6e0000006000830152602082019050919050565b6000611e4760128361225e565b91507f526f756e64206e6f7420636f6d706c65746500000000000000000000000000006000830152602082019050919050565b6000611e87601e8361225e565b91507f54686973206f7074696f6e2063616e6e6f742062652063616e63656c656400006000830152602082019050919050565b6000611ec760288361225e565b91507f54686973206f7074696f6e206973206e6f7420656c696769626c6520666f722060008301527f77697468647261770000000000000000000000000000000000000000000000006020830152604082019050919050565b6000611f2d60218361225e565b91507f4f7074696f6e2068617320616c7265616479206265656e20657865726369736560008301527f64000000000000000000000000000000000000000000000000000000000000006020830152604082019050919050565b611f8f81612360565b82525050565b6000611fa18284611b4b565b915081905092915050565b600061016082019050611fc2600083018e611b3c565b611fcf602083018d611f86565b611fdc604083018c611f86565b611fe9606083018b611f86565b611ff6608083018a611f86565b61200360a0830189611b2d565b61201060c0830188611b2d565b61201d60e0830187611f86565b61202b610100830186611f86565b612039610120830185611b1e565b612047610140830184611b1e565b9c9b505050505050505050505050565b6000602082019050818103600083015261207081611b7c565b9050919050565b6000602082019050818103600083015261209081611be2565b9050919050565b600060208201905081810360008301526120b081611c48565b9050919050565b600060208201905081810360008301526120d081611cae565b9050919050565b600060208201905081810360008301526120f081611cee565b9050919050565b6000602082019050818103600083015261211081611d2e565b9050919050565b6000602082019050818103600083015261213081611d94565b9050919050565b6000602082019050818103600083015261215081611dfa565b9050919050565b6000602082019050818103600083015261217081611e3a565b9050919050565b6000602082019050818103600083015261219081611e7a565b9050919050565b600060208201905081810360008301526121b081611eba565b9050919050565b600060208201905081810360008301526121d081611f20565b9050919050565b60006020820190506121ec6000830184611f86565b92915050565b6000604051905081810181811067ffffffffffffffff8211171561221957612218612461565b5b8060405250919050565b600067ffffffffffffffff82111561223e5761223d612461565b5b601f19601f8301169050602081019050919050565b600081519050919050565b600082825260208201905092915050565b600081905092915050565b600061228582612360565b915061229083612360565b9250826122a05761229f612403565b5b828204905092915050565b60006122b682612360565b91506122c183612360565b9250817fffffffffffffffffffffffffffffffffffffffffffffffffffffffffffffffff04831182151516156122fa576122f96123d4565b5b828202905092915050565b600061231082612340565b9050919050565b60008115159050919050565b600081905061233182612490565b919050565b6000819050919050565b600073ffffffffffffffffffffffffffffffffffffffff82169050919050565b6000819050919050565b600069ffffffffffffffffffff82169050919050565b600061238b82612323565b9050919050565b82818337600083830152505050565b60005b838110156123bf5780820151818401526020810190506123a4565b838111156123ce576000848401525b50505050565b7f4e487b7100000000000000000000000000000000000000000000000000000000600052601160045260246000fd5b7f4e487b7100000000000000000000000000000000000000000000000000000000600052601260045260246000fd5b7f4e487b7100000000000000000000000000000000000000000000000000000000600052602160045260246000fd5b7f4e487b7100000000000000000000000000000000000000000000000000000000600052604160045260246000fd5b600281106124a1576124a0612432565b5b50565b6124ad81612336565b81146124b857600080fd5b50565b6124c481612360565b81146124cf57600080fd5b50565b6124db8161236a565b81146124e657600080fd5b5056fea26469706673582212202a748bca04b591df019aea34b3555ea18bb8c7df51331c35288186232b07ab5e64736f6c63430008000033",
  "immutableReferences": {},
  "source": "pragma solidity 0.8.0;\n\nimport \"./dependencies/LinkTokenInterface.sol\";\nimport \"./dependencies/AggregatorV3Interface.sol\";\n\ncontract OptionTrades {\n    //Pricefeed interfaces\n    AggregatorV3Interface internal maticFeed;\n    //Interface for LINK token functions\n    LinkTokenInterface internal LINK;\n    uint maticPrice;\n    address payable contractAddr;\n\n    bytes32 callHash = keccak256(abi.encodePacked(\"CALL\"));\n    bytes32 putHash = keccak256(abi.encodePacked(\"PUT\"));\n\n    enum OptionType { PUT, CALL }\n    \n    //Options stored in arrays of structs\n    struct option {\n        OptionType optionType; //Helper to show last updated cost to exercise\n        uint strike; //Price in USD (18 decimal places) option allows buyer to purchase tokens at\n        uint premium; //Fee in contract token that option writer charges\n        uint expiry; //Unix timestamp of expiration time\n        uint amount; //Amount of tokens the option contract is for\n        bool exercised; //Has option been exercised\n        bool canceled; //Has option been canceled\n        uint id; //Unique ID of option, also array index\n        uint latestCost; //Helper to show last updated cost to exercise\n        address payable writer; //Issuer of option\n        address payable buyer; //Buyer of option\n    }\n    option[] public maticOpts;\n\n    //Kovan feeds: https://docs.chain.link/docs/reference-contracts\n    constructor() public {\n        // -- Matic --\n        /*\n        //MATIC/USD feed\n        maticFeed = AggregatorV3Interface(0xAB594600376Ec9fD91F8e885dADF0CE036862dE0);\n        //LINK token address\n        LINK = LinkTokenInterface(0xb0897686c545045aFc77CF20eC7A532E3120E0F1);\n        */\n\n        // -- Mumbai --\n        /* */\n        //MATIC/USD feed\n        maticFeed = AggregatorV3Interface(0xd0D5e3DB44DE05E9F294BB0a3bEEaF030DE24Ada);\n        //LINK token address\n        LINK = LinkTokenInterface(0x326C977E6efc84E512bB9C30f76E30c160eD06FB);\n        contractAddr = payable(address(this));\n    }\n    \n    //Returns the latest MATIC price\n    function getMaticPrice() public view returns (uint) {\n        (\n            uint80 roundID, \n            int price,\n            uint startedAt,\n            uint timeStamp,\n            uint80 answeredInRound\n        ) = maticFeed.latestRoundData();\n        // If the round is not complete yet, timestamp is 0\n        require(timeStamp > 0, \"Round not complete\");\n        //Price should never be negative thus cast int to unit is ok\n        //Price is 8 decimal places and will require 1e10 correction later to 18 places\n        return uint(price);\n    }\n    \n    //Updates prices to latest\n    function updatePrices() internal {\n        maticPrice = getMaticPrice();\n    }\n    \n    //Allows user to write a covered call option\n    //Takes which token, a strike price(USD per token w/18 decimal places), premium(same unit as token), expiration time(unix) and how many tokens the contract is for\n    function writeOption(uint strike, uint premium, uint expiry, uint tknAmt, string memory optionType) public payable {\n        bytes32 optionType = keccak256(abi.encodePacked(optionType));\n        require(optionType == callHash || optionType == putHash, \"Only CALL and PUT option types are supported\");\n        require(msg.value == tknAmt, \"Incorrect amount of Matic supplied\"); \n        updatePrices();\n        OptionType optionTypeEnum;\n        if(optionType == callHash)\n        {\n            optionTypeEnum = OptionType.CALL;\n        }else\n        {\n            optionTypeEnum = OptionType.PUT;\n        }\n        uint latestCost = (strike * tknAmt) / (maticPrice * 10**10); //current cost to exercise in Matic, decimal places corrected\n        maticOpts.push(option(optionTypeEnum, strike, premium, expiry, tknAmt, false, false, maticOpts.length, latestCost, payable(msg.sender), payable(address(0))));\n    }\n    \n    //Allows option writer to cancel and get their funds back from an unpurchased option\n    function cancelOption(uint ID) public payable {\n        require(msg.sender == maticOpts[ID].writer, \"You did not write this option\");\n        //Must not have already been canceled or bought\n        require(!maticOpts[ID].canceled && maticOpts[ID].buyer == address(0), \"This option cannot be canceled\");\n        maticOpts[ID].writer.transfer(maticOpts[ID].amount);\n        maticOpts[ID].canceled = true;\n    }\n    \n    //Purchase a call option, needs desired token, ID of option and payment\n    function buyOption(uint ID) public payable {\n        updatePrices();\n        require(!maticOpts[ID].canceled && maticOpts[ID].expiry > block.timestamp, \"Option is canceled/expired and cannot be bought\");\n        //Transfer premium payment from buyer\n        require(msg.value == maticOpts[ID].premium, \"Incorrect amount of MATIC sent for premium\");\n        //Transfer premium payment to writer\n        maticOpts[ID].writer.transfer(maticOpts[ID].premium);\n        maticOpts[ID].buyer = payable(msg.sender);\n    }\n    \n    //Exercise your call option, needs desired token, ID of option and payment\n    function exercise(uint ID) public payable {\n        //If not expired and not already exercised, allow option owner to exercise\n        //To exercise, the strike value*amount equivalent paid to writer (from buyer) and amount of tokens in the contract paid to buyer\n        require(maticOpts[ID].buyer == msg.sender, \"You do not own this option\");\n        require(!maticOpts[ID].exercised, \"Option has already been exercised\");\n        require(maticOpts[ID].expiry > block.timestamp, \"Option is expired\");\n        //Conditions are met, proceed to payouts\n        updatePrices();\n        //Cost to exercise\n        uint exerciseVal = maticOpts[ID].strike*maticOpts[ID].amount;\n        //Equivalent MATIC value using Chainlink feed\n        uint equivMatic = exerciseVal / (maticPrice * 10**10); //move decimal 10 places right to account for 8 places of pricefeed\n        //Buyer exercises option by paying strike*amount equivalent MATIC value\n        require(msg.value == equivMatic, \"Incorrect LINK amount sent to exercise\");\n        if(maticOpts[ID].optionType == OptionType.CALL)\n        {\n            //Pay writer the exercise cost\n            maticOpts[ID].writer.transfer(equivMatic);\n            //Pay buyer contract amount of MATIC\n            payable(msg.sender).transfer(maticOpts[ID].amount);\n        }else\n        {\n            //Pay writer contract amount of MATIC\n            payable(msg.sender).transfer(maticOpts[ID].amount);\n            //Pay buyer the exercise cost\n            maticOpts[ID].writer.transfer(equivMatic);\n        }\n        maticOpts[ID].exercised = true;\n    }\n    \n    //Allows writer to retrieve funds from an expired, non-exercised, non-canceled option\n    function retrieveExpiredFunds(uint ID) public payable {\n        require(msg.sender == maticOpts[ID].writer, \"You did not write this option\");\n        //Must be expired, not exercised and not canceled\n        require(maticOpts[ID].expiry <= block.timestamp && !maticOpts[ID].exercised && !maticOpts[ID].canceled, \"This option is not eligible for withdraw\");\n        maticOpts[ID].writer.transfer(maticOpts[ID].amount);\n        //Repurposing canceled flag to prevent more than one withdraw\n        maticOpts[ID].canceled = true;\n    }\n    \n    //This is a helper function to help the user see what the cost to exercise an option is currently before they do so\n    //Updates lastestCost member of option which is publicly viewable\n    function updateExerciseCost(uint ID) public {\n        updatePrices();\n        maticOpts[ID].latestCost = (maticOpts[ID].strike * maticOpts[ID].amount) / (maticPrice * 10**10);\n    }\n\n    function getMaticOptsLength() public returns (uint256 maticOptsLength) {\n        return maticOpts.length;\n    }\n}",
  "sourcePath": "/home/turupawn/Projects/Blockchain/MaticOptionTrading/contracts/OptionTrades.sol",
  "compiler": {
    "name": "solc",
    "version": "0.8.0+commit.c7dfd78e.Emscripten.clang"
  },
  "schemaVersion": "3.4.0",
  "updatedAt": "2021-05-12T19:41:56.164Z",
  "networkType": "ethereum",
  "devdoc": {
    "kind": "dev",
    "methods": {},
    "version": 1
  },
  "userdoc": {
    "kind": "user",
    "methods": {},
    "version": 1
  }
}