{
  "contractName": "OptionTrades",
  "abi": [
    {
      "inputs": [],
      "stateMutability": "nonpayable",
      "type": "constructor"
    },
    {
      "inputs": [
        {
          "internalType": "uint256",
          "name": "",
          "type": "uint256"
        }
      ],
      "name": "maticOpts",
      "outputs": [
        {
          "internalType": "enum OptionTrades.OptionType",
          "name": "optionType",
          "type": "uint8"
        },
        {
          "internalType": "uint256",
          "name": "strike",
          "type": "uint256"
        },
        {
          "internalType": "uint256",
          "name": "premium",
          "type": "uint256"
        },
        {
          "internalType": "uint256",
          "name": "expiry",
          "type": "uint256"
        },
        {
          "internalType": "uint256",
          "name": "amount",
          "type": "uint256"
        },
        {
          "internalType": "bool",
          "name": "exercised",
          "type": "bool"
        },
        {
          "internalType": "bool",
          "name": "canceled",
          "type": "bool"
        },
        {
          "internalType": "uint256",
          "name": "id",
          "type": "uint256"
        },
        {
          "internalType": "address payable",
          "name": "writer",
          "type": "address"
        },
        {
          "internalType": "address payable",
          "name": "buyer",
          "type": "address"
        }
      ],
      "stateMutability": "view",
      "type": "function",
      "constant": true
    },
    {
      "inputs": [],
      "name": "getMaticPrice",
      "outputs": [
        {
          "internalType": "uint256",
          "name": "",
          "type": "uint256"
        }
      ],
      "stateMutability": "view",
      "type": "function",
      "constant": true
    },
    {
      "inputs": [
        {
          "internalType": "uint256",
          "name": "strike",
          "type": "uint256"
        },
        {
          "internalType": "uint256",
          "name": "premium",
          "type": "uint256"
        },
        {
          "internalType": "uint256",
          "name": "expiry",
          "type": "uint256"
        },
        {
          "internalType": "uint256",
          "name": "tknAmt",
          "type": "uint256"
        },
        {
          "internalType": "string",
          "name": "optionType",
          "type": "string"
        }
      ],
      "name": "writeOption",
      "outputs": [],
      "stateMutability": "payable",
      "type": "function",
      "payable": true
    },
    {
      "inputs": [
        {
          "internalType": "uint256",
          "name": "ID",
          "type": "uint256"
        }
      ],
      "name": "cancelOption",
      "outputs": [],
      "stateMutability": "payable",
      "type": "function",
      "payable": true
    },
    {
      "inputs": [
        {
          "internalType": "uint256",
          "name": "ID",
          "type": "uint256"
        }
      ],
      "name": "buyOption",
      "outputs": [],
      "stateMutability": "payable",
      "type": "function",
      "payable": true
    },
    {
      "inputs": [
        {
          "internalType": "uint256",
          "name": "ID",
          "type": "uint256"
        }
      ],
      "name": "exercise",
      "outputs": [],
      "stateMutability": "payable",
      "type": "function",
      "payable": true
    },
    {
      "inputs": [
        {
          "internalType": "uint256",
          "name": "ID",
          "type": "uint256"
        }
      ],
      "name": "retrieveExpiredFunds",
      "outputs": [],
      "stateMutability": "payable",
      "type": "function",
      "payable": true
    },
    {
      "inputs": [
        {
          "internalType": "uint256",
          "name": "ID",
          "type": "uint256"
        }
      ],
      "name": "getExerciseCost",
      "outputs": [
        {
          "internalType": "uint256",
          "name": "",
          "type": "uint256"
        }
      ],
      "stateMutability": "view",
      "type": "function",
      "constant": true
    },
    {
      "inputs": [],
      "name": "getMaticOptsLength",
      "outputs": [
        {
          "internalType": "uint256",
          "name": "maticOptsLength",
          "type": "uint256"
        }
      ],
      "stateMutability": "view",
      "type": "function",
      "constant": true
    },
    {
      "inputs": [
        {
          "internalType": "address",
          "name": "_address",
          "type": "address"
        },
        {
          "internalType": "bool",
          "name": "include_if_writer",
          "type": "bool"
        },
        {
          "internalType": "bool",
          "name": "include_if_buyer",
          "type": "bool"
        },
        {
          "internalType": "bool",
          "name": "exclude_expired",
          "type": "bool"
        },
        {
          "internalType": "bool",
          "name": "exclude_canceled",
          "type": "bool"
        },
        {
          "internalType": "bool",
          "name": "exclude_exercised",
          "type": "bool"
        },
        {
          "internalType": "bool",
          "name": "exclude_bought",
          "type": "bool"
        }
      ],
      "name": "getMaticOptsByAddress",
      "outputs": [
        {
          "internalType": "uint256[]",
          "name": "optionIds",
          "type": "uint256[]"
        }
      ],
      "stateMutability": "view",
      "type": "function",
      "constant": true
    },
    {
      "inputs": [
        {
          "internalType": "bool",
          "name": "exclude_expired",
          "type": "bool"
        },
        {
          "internalType": "bool",
          "name": "exclude_canceled",
          "type": "bool"
        },
        {
          "internalType": "bool",
          "name": "exclude_exercised",
          "type": "bool"
        },
        {
          "internalType": "bool",
          "name": "exclude_bought",
          "type": "bool"
        }
      ],
      "name": "getMaticOpts",
      "outputs": [
        {
          "internalType": "uint256[]",
          "name": "optionIds",
          "type": "uint256[]"
        }
      ],
      "stateMutability": "view",
      "type": "function",
      "constant": true
    }
  ],
  "bytecode": "0x60806040526040516020016200001590620001f1565b604051602081830303815290604052805190602001206003556040516020016200003f90620001da565b604051602081830303815290604052805190602001206004553480156200006557600080fd5b5073d0d5e3db44de05e9f294bb0a3beeaf030de24ada6000806101000a81548173ffffffffffffffffffffffffffffffffffffffff021916908373ffffffffffffffffffffffffffffffffffffffff16021790555073326c977e6efc84e512bb9c30f76e30c160ed06fb600160006101000a81548173ffffffffffffffffffffffffffffffffffffffff021916908373ffffffffffffffffffffffffffffffffffffffff16021790555030600260006101000a81548173ffffffffffffffffffffffffffffffffffffffff021916908373ffffffffffffffffffffffffffffffffffffffff16021790555062000213565b60006200016560038362000208565b91507f50555400000000000000000000000000000000000000000000000000000000006000830152600382019050919050565b6000620001a760048362000208565b91507f43414c4c000000000000000000000000000000000000000000000000000000006000830152600482019050919050565b6000620001e78262000156565b9150819050919050565b6000620001fe8262000198565b9150819050919050565b600081905092915050565b6133c880620002236000396000f3fe60806040526004361061009c5760003560e01c8063790eee2e11610064578063790eee2e146101ba578063b07f0a41146101d6578063c83d3248146101f2578063de6bf6351461021d578063f1356ffc14610239578063fba225b9146102645761009c565b8063015414f2146100a15780632cec78db146100de5780633a39f6231461011b5780633f1ec384146101375780636325951614610174575b600080fd5b3480156100ad57600080fd5b506100c860048036038101906100c39190612685565b610280565b6040516100d59190612d2a565b60405180910390f35b3480156100ea57600080fd5b50610105600480360381019061010091906126e8565b6106b6565b6040516101129190612f68565b60405180910390f35b61013560048036038101906101309190612711565b610788565b005b34801561014357600080fd5b5061015e600480360381019061015991906125e7565b610ab0565b60405161016b9190612d2a565b60405180910390f35b34801561018057600080fd5b5061019b600480360381019061019691906126e8565b611241565b6040516101b19a99989796959493929190612d4c565b60405180910390f35b6101d460048036038101906101cf91906126e8565b61130c565b005b6101f060048036038101906101eb91906126e8565b61169b565b005b3480156101fe57600080fd5b50610207611d76565b6040516102149190612f68565b60405180910390f35b610237600480360381019061023291906126e8565b611e75565b005b34801561024557600080fd5b5061024e6121ee565b60405161025b9190612f68565b60405180910390f35b61027e600480360381019061027991906126e8565b6121fb565b005b60606000805b600580549050811015610497578680156102ea575042600582815481106102d6577f4e487b7100000000000000000000000000000000000000000000000000000000600052603260045260246000fd5b906000526020600020906009020160030154115b1580156103565750858015610354575060058181548110610334577f4e487b7100000000000000000000000000000000000000000000000000000000600052603260045260246000fd5b906000526020600020906009020160050160019054906101000a900460ff165b155b80156103c157508480156103bf57506005818154811061039f577f4e487b7100000000000000000000000000000000000000000000000000000000600052603260045260246000fd5b906000526020600020906009020160050160019054906101000a900460ff165b155b801561046f575083801561046d5750600073ffffffffffffffffffffffffffffffffffffffff1660058281548110610422577f4e487b7100000000000000000000000000000000000000000000000000000000600052603260045260246000fd5b906000526020600020906009020160080160009054906101000a900473ffffffffffffffffffffffffffffffffffffffff1673ffffffffffffffffffffffffffffffffffffffff1614155b155b15610484576001826104819190613044565b91505b808061048f90613206565b915050610286565b5060008167ffffffffffffffff8111156104da577f4e487b7100000000000000000000000000000000000000000000000000000000600052604160045260246000fd5b6040519080825280602002602001820160405280156105085781602001602082028036833780820191505090505b50905060005b6005805490508110156106a8578780156105725750426005828154811061055e577f4e487b7100000000000000000000000000000000000000000000000000000000600052603260045260246000fd5b906000526020600020906009020160030154115b1580156105de57508680156105dc5750600581815481106105bc577f4e487b7100000000000000000000000000000000000000000000000000000000600052603260045260246000fd5b906000526020600020906009020160050160019054906101000a900460ff165b155b80156106495750858015610647575060058181548110610627577f4e487b7100000000000000000000000000000000000000000000000000000000600052603260045260246000fd5b906000526020600020906009020160050160019054906101000a900460ff165b155b156106955780828281518110610688577f4e487b7100000000000000000000000000000000000000000000000000000000600052603260045260246000fd5b6020026020010181815250505b80806106a090613206565b91505061050e565b508092505050949350505050565b6000806106c1611d76565b90506402540be400816106d491906130cb565b6005848154811061070e577f4e487b7100000000000000000000000000000000000000000000000000000000600052603260045260246000fd5b9060005260206000209060090201600401546005858154811061075a577f4e487b7100000000000000000000000000000000000000000000000000000000600052603260045260246000fd5b90600052602060002090600902016001015461077691906130cb565b610780919061309a565b915050919050565b60008160405160200161079b9190612d13565b6040516020818303038152906040528051906020012090506003548114806107c4575060045481145b610803576040517f08c379a00000000000000000000000000000000000000000000000000000000081526004016107fa90612e28565b60405180910390fd5b823414610845576040517f08c379a000000000000000000000000000000000000000000000000000000000815260040161083c90612e88565b60405180910390fd5b600061084f611d76565b90506000600354831415610866576001905061086b565b600090505b60056040518061014001604052808360018111156108b2577f4e487b7100000000000000000000000000000000000000000000000000000000600052602160045260246000fd5b81526020018a815260200189815260200188815260200187815260200160001515815260200160001515815260200160058054905081526020013373ffffffffffffffffffffffffffffffffffffffff168152602001600073ffffffffffffffffffffffffffffffffffffffff16815250908060018154018082558091505060019003906000526020600020906009020160009091909190915060008201518160000160006101000a81548160ff0219169083600181111561099d577f4e487b7100000000000000000000000000000000000000000000000000000000600052602160045260246000fd5b02179055506020820151816001015560408201518160020155606082015181600301556080820151816004015560a08201518160050160006101000a81548160ff02191690831515021790555060c08201518160050160016101000a81548160ff02191690831515021790555060e082015181600601556101008201518160070160006101000a81548173ffffffffffffffffffffffffffffffffffffffff021916908373ffffffffffffffffffffffffffffffffffffffff1602179055506101208201518160080160006101000a81548173ffffffffffffffffffffffffffffffffffffffff021916908373ffffffffffffffffffffffffffffffffffffffff16021790555050505050505050505050565b60606000805b600580549050811015610e1c57868015610b1a57504260058281548110610b06577f4e487b7100000000000000000000000000000000000000000000000000000000600052603260045260246000fd5b906000526020600020906009020160030154115b158015610b865750858015610b84575060058181548110610b64577f4e487b7100000000000000000000000000000000000000000000000000000000600052603260045260246000fd5b906000526020600020906009020160050160019054906101000a900460ff165b155b8015610bf15750848015610bef575060058181548110610bcf577f4e487b7100000000000000000000000000000000000000000000000000000000600052603260045260246000fd5b906000526020600020906009020160050160019054906101000a900460ff165b155b8015610c9f5750838015610c9d5750600073ffffffffffffffffffffffffffffffffffffffff1660058281548110610c52577f4e487b7100000000000000000000000000000000000000000000000000000000600052603260045260246000fd5b906000526020600020906009020160080160009054906101000a900473ffffffffffffffffffffffffffffffffffffffff1673ffffffffffffffffffffffffffffffffffffffff1614155b155b8015610df45750888015610d4957508973ffffffffffffffffffffffffffffffffffffffff1660058281548110610cff577f4e487b7100000000000000000000000000000000000000000000000000000000600052603260045260246000fd5b906000526020600020906009020160070160009054906101000a900473ffffffffffffffffffffffffffffffffffffffff1673ffffffffffffffffffffffffffffffffffffffff16145b80610df35750878015610df257508973ffffffffffffffffffffffffffffffffffffffff1660058281548110610da8577f4e487b7100000000000000000000000000000000000000000000000000000000600052603260045260246000fd5b906000526020600020906009020160080160009054906101000a900473ffffffffffffffffffffffffffffffffffffffff1673ffffffffffffffffffffffffffffffffffffffff16145b5b5b15610e0957600182610e069190613044565b91505b8080610e1490613206565b915050610ab6565b5060008167ffffffffffffffff811115610e5f577f4e487b7100000000000000000000000000000000000000000000000000000000600052604160045260246000fd5b604051908082528060200260200182016040528015610e8d5781602001602082028036833780820191505090505b50905060005b60058054905081101561123057878015610ef757504260058281548110610ee3577f4e487b7100000000000000000000000000000000000000000000000000000000600052603260045260246000fd5b906000526020600020906009020160030154115b158015610f635750868015610f61575060058181548110610f41577f4e487b7100000000000000000000000000000000000000000000000000000000600052603260045260246000fd5b906000526020600020906009020160050160019054906101000a900460ff165b155b8015610fce5750858015610fcc575060058181548110610fac577f4e487b7100000000000000000000000000000000000000000000000000000000600052603260045260246000fd5b906000526020600020906009020160050160019054906101000a900460ff165b155b801561107c575084801561107a5750600073ffffffffffffffffffffffffffffffffffffffff166005828154811061102f577f4e487b7100000000000000000000000000000000000000000000000000000000600052603260045260246000fd5b906000526020600020906009020160080160009054906101000a900473ffffffffffffffffffffffffffffffffffffffff1673ffffffffffffffffffffffffffffffffffffffff1614155b155b80156111d1575089801561112657508a73ffffffffffffffffffffffffffffffffffffffff16600582815481106110dc577f4e487b7100000000000000000000000000000000000000000000000000000000600052603260045260246000fd5b906000526020600020906009020160070160009054906101000a900473ffffffffffffffffffffffffffffffffffffffff1673ffffffffffffffffffffffffffffffffffffffff16145b806111d057508880156111cf57508a73ffffffffffffffffffffffffffffffffffffffff1660058281548110611185577f4e487b7100000000000000000000000000000000000000000000000000000000600052603260045260246000fd5b906000526020600020906009020160080160009054906101000a900473ffffffffffffffffffffffffffffffffffffffff1673ffffffffffffffffffffffffffffffffffffffff16145b5b5b1561121d5780828281518110611210577f4e487b7100000000000000000000000000000000000000000000000000000000600052603260045260246000fd5b6020026020010181815250505b808061122890613206565b915050610e93565b508092505050979650505050505050565b6005818154811061125157600080fd5b90600052602060002090600902016000915090508060000160009054906101000a900460ff16908060010154908060020154908060030154908060040154908060050160009054906101000a900460ff16908060050160019054906101000a900460ff16908060060154908060070160009054906101000a900473ffffffffffffffffffffffffffffffffffffffff16908060080160009054906101000a900473ffffffffffffffffffffffffffffffffffffffff1690508a565b60058181548110611346577f4e487b7100000000000000000000000000000000000000000000000000000000600052603260045260246000fd5b906000526020600020906009020160070160009054906101000a900473ffffffffffffffffffffffffffffffffffffffff1673ffffffffffffffffffffffffffffffffffffffff163373ffffffffffffffffffffffffffffffffffffffff16146113e5576040517f08c379a00000000000000000000000000000000000000000000000000000000081526004016113dc90612ec8565b60405180910390fd5b4260058281548110611420577f4e487b7100000000000000000000000000000000000000000000000000000000600052603260045260246000fd5b90600052602060002090600902016003015411158015611496575060058181548110611475577f4e487b7100000000000000000000000000000000000000000000000000000000600052603260045260246000fd5b906000526020600020906009020160050160009054906101000a900460ff16155b80156114f85750600581815481106114d7577f4e487b7100000000000000000000000000000000000000000000000000000000600052603260045260246000fd5b906000526020600020906009020160050160019054906101000a900460ff16155b611537576040517f08c379a000000000000000000000000000000000000000000000000000000000815260040161152e90612f28565b60405180910390fd5b60058181548110611571577f4e487b7100000000000000000000000000000000000000000000000000000000600052603260045260246000fd5b906000526020600020906009020160070160009054906101000a900473ffffffffffffffffffffffffffffffffffffffff1673ffffffffffffffffffffffffffffffffffffffff166108fc600583815481106115f6577f4e487b7100000000000000000000000000000000000000000000000000000000600052603260045260246000fd5b9060005260206000209060090201600401549081150290604051600060405180830381858888f19350505050158015611633573d6000803e3d6000fd5b50600160058281548110611670577f4e487b7100000000000000000000000000000000000000000000000000000000600052603260045260246000fd5b906000526020600020906009020160050160016101000a81548160ff02191690831515021790555050565b3373ffffffffffffffffffffffffffffffffffffffff16600582815481106116ec577f4e487b7100000000000000000000000000000000000000000000000000000000600052603260045260246000fd5b906000526020600020906009020160080160009054906101000a900473ffffffffffffffffffffffffffffffffffffffff1673ffffffffffffffffffffffffffffffffffffffff1614611774576040517f08c379a000000000000000000000000000000000000000000000000000000000815260040161176b90612e48565b60405180910390fd5b600581815481106117ae577f4e487b7100000000000000000000000000000000000000000000000000000000600052603260045260246000fd5b906000526020600020906009020160050160009054906101000a900460ff161561180d576040517f08c379a000000000000000000000000000000000000000000000000000000000815260040161180490612f48565b60405180910390fd5b4260058281548110611848577f4e487b7100000000000000000000000000000000000000000000000000000000600052603260045260246000fd5b9060005260206000209060090201600301541161189a576040517f08c379a000000000000000000000000000000000000000000000000000000000815260040161189190612e68565b60405180910390fd5b60006118a4611d76565b90506000600583815481106118e2577f4e487b7100000000000000000000000000000000000000000000000000000000600052603260045260246000fd5b9060005260206000209060090201600401546005848154811061192e577f4e487b7100000000000000000000000000000000000000000000000000000000600052603260045260246000fd5b90600052602060002090600902016001015461194a91906130cb565b905060006402540be4008361195f91906130cb565b8261196a919061309a565b90508034146119ae576040517f08c379a00000000000000000000000000000000000000000000000000000000081526004016119a590612e08565b60405180910390fd5b6001808111156119e7577f4e487b7100000000000000000000000000000000000000000000000000000000600052602160045260246000fd5b60058581548110611a21577f4e487b7100000000000000000000000000000000000000000000000000000000600052603260045260246000fd5b906000526020600020906009020160000160009054906101000a900460ff166001811115611a78577f4e487b7100000000000000000000000000000000000000000000000000000000600052602160045260246000fd5b1415611bc75760058481548110611ab8577f4e487b7100000000000000000000000000000000000000000000000000000000600052603260045260246000fd5b906000526020600020906009020160070160009054906101000a900473ffffffffffffffffffffffffffffffffffffffff1673ffffffffffffffffffffffffffffffffffffffff166108fc829081150290604051600060405180830381858888f19350505050158015611b2f573d6000803e3d6000fd5b503373ffffffffffffffffffffffffffffffffffffffff166108fc60058681548110611b84577f4e487b7100000000000000000000000000000000000000000000000000000000600052603260045260246000fd5b9060005260206000209060090201600401549081150290604051600060405180830381858888f19350505050158015611bc1573d6000803e3d6000fd5b50611d0c565b3373ffffffffffffffffffffffffffffffffffffffff166108fc60058681548110611c1b577f4e487b7100000000000000000000000000000000000000000000000000000000600052603260045260246000fd5b9060005260206000209060090201600401549081150290604051600060405180830381858888f19350505050158015611c58573d6000803e3d6000fd5b5060058481548110611c93577f4e487b7100000000000000000000000000000000000000000000000000000000600052603260045260246000fd5b906000526020600020906009020160070160009054906101000a900473ffffffffffffffffffffffffffffffffffffffff1673ffffffffffffffffffffffffffffffffffffffff166108fc829081150290604051600060405180830381858888f19350505050158015611d0a573d6000803e3d6000fd5b505b600160058581548110611d48577f4e487b7100000000000000000000000000000000000000000000000000000000600052603260045260246000fd5b906000526020600020906009020160050160006101000a81548160ff02191690831515021790555050505050565b60008060008060008060008054906101000a900473ffffffffffffffffffffffffffffffffffffffff1673ffffffffffffffffffffffffffffffffffffffff1663feaf968c6040518163ffffffff1660e01b815260040160a06040518083038186803b158015611de557600080fd5b505afa158015611df9573d6000803e3d6000fd5b505050506040513d601f19601f82011682018060405250810190611e1d91906127a0565b9450945094509450945060008211611e6a576040517f08c379a0000000000000000000000000000000000000000000000000000000008152600401611e6190612ee8565b60405180910390fd5b839550505050505090565b60058181548110611eaf577f4e487b7100000000000000000000000000000000000000000000000000000000600052603260045260246000fd5b906000526020600020906009020160070160009054906101000a900473ffffffffffffffffffffffffffffffffffffffff1673ffffffffffffffffffffffffffffffffffffffff163373ffffffffffffffffffffffffffffffffffffffff1614611f4e576040517f08c379a0000000000000000000000000000000000000000000000000000000008152600401611f4590612ec8565b60405180910390fd5b60058181548110611f88577f4e487b7100000000000000000000000000000000000000000000000000000000600052603260045260246000fd5b906000526020600020906009020160050160019054906101000a900460ff1615801561204b5750600073ffffffffffffffffffffffffffffffffffffffff1660058281548110612001577f4e487b7100000000000000000000000000000000000000000000000000000000600052603260045260246000fd5b906000526020600020906009020160080160009054906101000a900473ffffffffffffffffffffffffffffffffffffffff1673ffffffffffffffffffffffffffffffffffffffff16145b61208a576040517f08c379a000000000000000000000000000000000000000000000000000000000815260040161208190612f08565b60405180910390fd5b600581815481106120c4577f4e487b7100000000000000000000000000000000000000000000000000000000600052603260045260246000fd5b906000526020600020906009020160070160009054906101000a900473ffffffffffffffffffffffffffffffffffffffff1673ffffffffffffffffffffffffffffffffffffffff166108fc60058381548110612149577f4e487b7100000000000000000000000000000000000000000000000000000000600052603260045260246000fd5b9060005260206000209060090201600401549081150290604051600060405180830381858888f19350505050158015612186573d6000803e3d6000fd5b506001600582815481106121c3577f4e487b7100000000000000000000000000000000000000000000000000000000600052603260045260246000fd5b906000526020600020906009020160050160016101000a81548160ff02191690831515021790555050565b6000600580549050905090565b60058181548110612235577f4e487b7100000000000000000000000000000000000000000000000000000000600052603260045260246000fd5b906000526020600020906009020160050160019054906101000a900460ff161580156122ab57504260058281548110612297577f4e487b7100000000000000000000000000000000000000000000000000000000600052603260045260246000fd5b906000526020600020906009020160030154115b6122ea576040517f08c379a00000000000000000000000000000000000000000000000000000000081526004016122e190612de8565b60405180910390fd5b60058181548110612324577f4e487b7100000000000000000000000000000000000000000000000000000000600052603260045260246000fd5b9060005260206000209060090201600201543414612377576040517f08c379a000000000000000000000000000000000000000000000000000000000815260040161236e90612ea8565b60405180910390fd5b600581815481106123b1577f4e487b7100000000000000000000000000000000000000000000000000000000600052603260045260246000fd5b906000526020600020906009020160070160009054906101000a900473ffffffffffffffffffffffffffffffffffffffff1673ffffffffffffffffffffffffffffffffffffffff166108fc60058381548110612436577f4e487b7100000000000000000000000000000000000000000000000000000000600052603260045260246000fd5b9060005260206000209060090201600201549081150290604051600060405180830381858888f19350505050158015612473573d6000803e3d6000fd5b5033600582815481106124af577f4e487b7100000000000000000000000000000000000000000000000000000000600052603260045260246000fd5b906000526020600020906009020160080160006101000a81548173ffffffffffffffffffffffffffffffffffffffff021916908373ffffffffffffffffffffffffffffffffffffffff16021790555050565b600061251461250f84612fb4565b612f83565b90508281526020810184848401111561252c57600080fd5b6125378482856131c4565b509392505050565b60008135905061254e8161331f565b92915050565b60008135905061256381613336565b92915050565b6000815190506125788161334d565b92915050565b600082601f83011261258f57600080fd5b813561259f848260208601612501565b91505092915050565b6000813590506125b781613364565b92915050565b6000815190506125cc81613364565b92915050565b6000815190506125e18161337b565b92915050565b600080600080600080600060e0888a03121561260257600080fd5b60006126108a828b0161253f565b97505060206126218a828b01612554565b96505060406126328a828b01612554565b95505060606126438a828b01612554565b94505060806126548a828b01612554565b93505060a06126658a828b01612554565b92505060c06126768a828b01612554565b91505092959891949750929550565b6000806000806080858703121561269b57600080fd5b60006126a987828801612554565b94505060206126ba87828801612554565b93505060406126cb87828801612554565b92505060606126dc87828801612554565b91505092959194509250565b6000602082840312156126fa57600080fd5b6000612708848285016125a8565b91505092915050565b600080600080600060a0868803121561272957600080fd5b6000612737888289016125a8565b9550506020612748888289016125a8565b9450506040612759888289016125a8565b935050606061276a888289016125a8565b925050608086013567ffffffffffffffff81111561278757600080fd5b6127938882890161257e565b9150509295509295909350565b600080600080600060a086880312156127b857600080fd5b60006127c6888289016125d2565b95505060206127d788828901612569565b94505060406127e8888289016125bd565b93505060606127f9888289016125bd565b925050608061280a888289016125d2565b9150509295509295909350565b60006128238383612cf5565b60208301905092915050565b61283881613137565b82525050565b600061284982612ff4565b6128538185613017565b935061285e83612fe4565b8060005b8381101561288f5781516128768882612817565b97506128818361300a565b925050600181019050612862565b5085935050505092915050565b6128a581613149565b82525050565b6128b4816131b2565b82525050565b60006128c582612fff565b6128cf8185613039565b93506128df8185602086016131d3565b80840191505092915050565b60006128f8602f83613028565b91507f4f7074696f6e2069732063616e63656c65642f6578706972656420616e64206360008301527f616e6e6f7420626520626f7567687400000000000000000000000000000000006020830152604082019050919050565b600061295e602683613028565b91507f496e636f7272656374204c494e4b20616d6f756e742073656e7420746f20657860008301527f65726369736500000000000000000000000000000000000000000000000000006020830152604082019050919050565b60006129c4602c83613028565b91507f4f6e6c792043414c4c20616e6420505554206f7074696f6e207479706573206160008301527f726520737570706f7274656400000000000000000000000000000000000000006020830152604082019050919050565b6000612a2a601a83613028565b91507f596f7520646f206e6f74206f776e2074686973206f7074696f6e0000000000006000830152602082019050919050565b6000612a6a601183613028565b91507f4f7074696f6e20697320657870697265640000000000000000000000000000006000830152602082019050919050565b6000612aaa602283613028565b91507f496e636f727265637420616d6f756e74206f66204d6174696320737570706c6960008301527f65640000000000000000000000000000000000000000000000000000000000006020830152604082019050919050565b6000612b10602a83613028565b91507f496e636f727265637420616d6f756e74206f66204d415449432073656e74206660008301527f6f72207072656d69756d000000000000000000000000000000000000000000006020830152604082019050919050565b6000612b76601d83613028565b91507f596f7520646964206e6f742077726974652074686973206f7074696f6e0000006000830152602082019050919050565b6000612bb6601283613028565b91507f526f756e64206e6f7420636f6d706c65746500000000000000000000000000006000830152602082019050919050565b6000612bf6601e83613028565b91507f54686973206f7074696f6e2063616e6e6f742062652063616e63656c656400006000830152602082019050919050565b6000612c36602883613028565b91507f54686973206f7074696f6e206973206e6f7420656c696769626c6520666f722060008301527f77697468647261770000000000000000000000000000000000000000000000006020830152604082019050919050565b6000612c9c602183613028565b91507f4f7074696f6e2068617320616c7265616479206265656e20657865726369736560008301527f64000000000000000000000000000000000000000000000000000000000000006020830152604082019050919050565b612cfe81613192565b82525050565b612d0d81613192565b82525050565b6000612d1f82846128ba565b915081905092915050565b60006020820190508181036000830152612d44818461283e565b905092915050565b600061014082019050612d62600083018d6128ab565b612d6f602083018c612d04565b612d7c604083018b612d04565b612d89606083018a612d04565b612d966080830189612d04565b612da360a083018861289c565b612db060c083018761289c565b612dbd60e0830186612d04565b612dcb61010083018561282f565b612dd961012083018461282f565b9b9a5050505050505050505050565b60006020820190508181036000830152612e01816128eb565b9050919050565b60006020820190508181036000830152612e2181612951565b9050919050565b60006020820190508181036000830152612e41816129b7565b9050919050565b60006020820190508181036000830152612e6181612a1d565b9050919050565b60006020820190508181036000830152612e8181612a5d565b9050919050565b60006020820190508181036000830152612ea181612a9d565b9050919050565b60006020820190508181036000830152612ec181612b03565b9050919050565b60006020820190508181036000830152612ee181612b69565b9050919050565b60006020820190508181036000830152612f0181612ba9565b9050919050565b60006020820190508181036000830152612f2181612be9565b9050919050565b60006020820190508181036000830152612f4181612c29565b9050919050565b60006020820190508181036000830152612f6181612c8f565b9050919050565b6000602082019050612f7d6000830184612d04565b92915050565b6000604051905081810181811067ffffffffffffffff82111715612faa57612fa96132dc565b5b8060405250919050565b600067ffffffffffffffff821115612fcf57612fce6132dc565b5b601f19601f8301169050602081019050919050565b6000819050602082019050919050565b600081519050919050565b600081519050919050565b6000602082019050919050565b600082825260208201905092915050565b600082825260208201905092915050565b600081905092915050565b600061304f82613192565b915061305a83613192565b9250827fffffffffffffffffffffffffffffffffffffffffffffffffffffffffffffffff0382111561308f5761308e61324f565b5b828201905092915050565b60006130a582613192565b91506130b083613192565b9250826130c0576130bf61327e565b5b828204905092915050565b60006130d682613192565b91506130e183613192565b9250817fffffffffffffffffffffffffffffffffffffffffffffffffffffffffffffffff048311821515161561311a5761311961324f565b5b828202905092915050565b600061313082613172565b9050919050565b600061314282613172565b9050919050565b60008115159050919050565b60008190506131638261330b565b919050565b6000819050919050565b600073ffffffffffffffffffffffffffffffffffffffff82169050919050565b6000819050919050565b600069ffffffffffffffffffff82169050919050565b60006131bd82613155565b9050919050565b82818337600083830152505050565b60005b838110156131f15780820151818401526020810190506131d6565b83811115613200576000848401525b50505050565b600061321182613192565b91507fffffffffffffffffffffffffffffffffffffffffffffffffffffffffffffffff8214156132445761324361324f565b5b600182019050919050565b7f4e487b7100000000000000000000000000000000000000000000000000000000600052601160045260246000fd5b7f4e487b7100000000000000000000000000000000000000000000000000000000600052601260045260246000fd5b7f4e487b7100000000000000000000000000000000000000000000000000000000600052602160045260246000fd5b7f4e487b7100000000000000000000000000000000000000000000000000000000600052604160045260246000fd5b6002811061331c5761331b6132ad565b5b50565b61332881613125565b811461333357600080fd5b50565b61333f81613149565b811461334a57600080fd5b50565b61335681613168565b811461336157600080fd5b50565b61336d81613192565b811461337857600080fd5b50565b6133848161319c565b811461338f57600080fd5b5056fea2646970667358221220b63ff46897ab2d8e6cc6deb51b8d5629a15763bfdccb2d565984269423cf44c064736f6c63430008000033",
  "immutableReferences": {},
  "source": "// SPDX-License-Identifier: MIT\n\npragma solidity 0.8.0;\n\nimport \"./dependencies/LinkTokenInterface.sol\";\nimport \"./dependencies/AggregatorV3Interface.sol\";\n\ncontract OptionTrades {\n    //Pricefeed interfaces\n    AggregatorV3Interface internal maticFeed;\n    //Interface for LINK token functions\n    LinkTokenInterface internal LINK;\n    address payable contractAddr;\n\n    bytes32 callHash = keccak256(abi.encodePacked(\"CALL\"));\n    bytes32 putHash = keccak256(abi.encodePacked(\"PUT\"));\n\n    enum OptionType { PUT, CALL }\n    \n    //Options stored in arrays of structs\n    struct option {\n        OptionType optionType; //Helper to show last updated cost to exercise\n        uint strike; //Price in USD (18 decimal places) option allows buyer to purchase tokens at\n        uint premium; //Fee in contract token that option writer charges\n        uint expiry; //Unix timestamp of expiration time\n        uint amount; //Amount of tokens the option contract is for\n        bool exercised; //Has option been exercised\n        bool canceled; //Has option been canceled\n        uint id; //Unique ID of option, also array index\n        address payable writer; //Issuer of option\n        address payable buyer; //Buyer of option\n    }\n    option[] public maticOpts;\n\n    //Kovan feeds: https://docs.chain.link/docs/reference-contracts\n    constructor() public {\n        // -- Matic --\n        /*\n        //MATIC/USD feed\n        maticFeed = AggregatorV3Interface(0xAB594600376Ec9fD91F8e885dADF0CE036862dE0);\n        //LINK token address\n        LINK = LinkTokenInterface(0xb0897686c545045aFc77CF20eC7A532E3120E0F1);\n        */\n\n        // -- Mumbai --\n        /* */\n        //MATIC/USD feed\n        maticFeed = AggregatorV3Interface(0xd0D5e3DB44DE05E9F294BB0a3bEEaF030DE24Ada);\n        //LINK token address\n        LINK = LinkTokenInterface(0x326C977E6efc84E512bB9C30f76E30c160eD06FB);\n        contractAddr = payable(address(this));\n    }\n    \n    //Returns the latest MATIC price\n    function getMaticPrice() public view returns (uint) {\n        (\n            uint80 roundID, \n            int price,\n            uint startedAt,\n            uint timeStamp,\n            uint80 answeredInRound\n        ) = maticFeed.latestRoundData();\n        // If the round is not complete yet, timestamp is 0\n        require(timeStamp > 0, \"Round not complete\");\n        //Price should never be negative thus cast int to unit is ok\n        //Price is 8 decimal places and will require 1e10 correction later to 18 places\n        return uint(price);\n    }\n    \n    //Allows user to write a covered call option\n    //Takes which token, a strike price(USD per token w/18 decimal places), premium(same unit as token), expiration time(unix) and how many tokens the contract is for\n    function writeOption(uint strike, uint premium, uint expiry, uint tknAmt, string memory optionType) public payable {\n        bytes32 optionTypeHash = keccak256(abi.encodePacked(optionType));\n        require(optionTypeHash == callHash || optionTypeHash == putHash, \"Only CALL and PUT option types are supported\");\n        require(msg.value == tknAmt, \"Incorrect amount of Matic supplied\"); \n        uint256 maticPrice = getMaticPrice();\n\n        OptionType optionTypeEnum;\n        if(optionTypeHash == callHash)\n        {\n            optionTypeEnum = OptionType.CALL;\n        }else\n        {\n            optionTypeEnum = OptionType.PUT;\n        }\n        maticOpts.push(option(optionTypeEnum, strike, premium, expiry, tknAmt, false, false, maticOpts.length, payable(msg.sender), payable(address(0))));\n    }\n    \n    //Allows option writer to cancel and get their funds back from an unpurchased option\n    function cancelOption(uint ID) public payable {\n        require(msg.sender == maticOpts[ID].writer, \"You did not write this option\");\n        //Must not have already been canceled or bought\n        require(!maticOpts[ID].canceled && maticOpts[ID].buyer == address(0), \"This option cannot be canceled\");\n        maticOpts[ID].writer.transfer(maticOpts[ID].amount);\n        maticOpts[ID].canceled = true;\n    }\n    \n    //Purchase a call option, needs desired token, ID of option and payment\n    function buyOption(uint ID) public payable {\n        require(!maticOpts[ID].canceled && maticOpts[ID].expiry > block.timestamp, \"Option is canceled/expired and cannot be bought\");\n        //Transfer premium payment from buyer\n        require(msg.value == maticOpts[ID].premium, \"Incorrect amount of MATIC sent for premium\");\n        //Transfer premium payment to writer\n        maticOpts[ID].writer.transfer(maticOpts[ID].premium);\n        maticOpts[ID].buyer = payable(msg.sender);\n    }\n    \n    //Exercise your call option, needs desired token, ID of option and payment\n    function exercise(uint ID) public payable {\n        //If not expired and not already exercised, allow option owner to exercise\n        //To exercise, the strike value*amount equivalent paid to writer (from buyer) and amount of tokens in the contract paid to buyer\n        require(maticOpts[ID].buyer == msg.sender, \"You do not own this option\");\n        require(!maticOpts[ID].exercised, \"Option has already been exercised\");\n        require(maticOpts[ID].expiry > block.timestamp, \"Option is expired\");\n        //Conditions are met, proceed to payouts\n        uint256 maticPrice = getMaticPrice();\n        //Cost to exercise\n        uint exerciseVal = maticOpts[ID].strike*maticOpts[ID].amount;\n        //Equivalent MATIC value using Chainlink feed\n        uint equivMatic = exerciseVal / (maticPrice * 10**10); //move decimal 10 places right to account for 8 places of pricefeed\n        //Buyer exercises option by paying strike*amount equivalent MATIC value\n        require(msg.value == equivMatic, \"Incorrect LINK amount sent to exercise\");\n        if(maticOpts[ID].optionType == OptionType.CALL)\n        {\n            //Pay writer the exercise cost\n            maticOpts[ID].writer.transfer(equivMatic);\n            //Pay buyer contract amount of MATIC\n            payable(msg.sender).transfer(maticOpts[ID].amount);\n        }else\n        {\n            //Pay writer contract amount of MATIC\n            payable(msg.sender).transfer(maticOpts[ID].amount);\n            //Pay buyer the exercise cost\n            maticOpts[ID].writer.transfer(equivMatic);\n        }\n        maticOpts[ID].exercised = true;\n    }\n    \n    //Allows writer to retrieve funds from an expired, non-exercised, non-canceled option\n    function retrieveExpiredFunds(uint ID) public payable {\n        require(msg.sender == maticOpts[ID].writer, \"You did not write this option\");\n        //Must be expired, not exercised and not canceled\n        require(maticOpts[ID].expiry <= block.timestamp && !maticOpts[ID].exercised && !maticOpts[ID].canceled, \"This option is not eligible for withdraw\");\n        maticOpts[ID].writer.transfer(maticOpts[ID].amount);\n        //Repurposing canceled flag to prevent more than one withdraw\n        maticOpts[ID].canceled = true;\n    }\n    \n    //This is a helper function to help the user see what the cost to exercise an option is currently before they do so\n    //Updates lastestCost member of option which is publicly viewable\n    function getExerciseCost(uint ID) public view returns(uint256) {\n        uint256 maticPrice = getMaticPrice();\n        return (maticOpts[ID].strike * maticOpts[ID].amount) / (maticPrice * 10**10);\n    }\n\n    function getMaticOptsLength() public view returns (uint256 maticOptsLength) {\n        return maticOpts.length;\n    }\n\n    function getMaticOptsByAddress(\n        address _address,\n        bool include_if_writer,\n        bool include_if_buyer,\n        bool exclude_expired,\n        bool exclude_canceled,\n        bool exclude_exercised,\n        bool exclude_bought\n    ) public view returns (uint256[] memory optionIds) {\n        uint resultLength = 0;\n        for (uint i = 0; i < maticOpts.length; i++)\n        {\n            if(\n                !(exclude_expired && maticOpts[i].expiry > block.timestamp)\n                && !(exclude_canceled && maticOpts[i].canceled)\n                && !(exclude_exercised && maticOpts[i].canceled)\n                && !(exclude_bought && maticOpts[i].buyer != address(0))\n                && ((include_if_writer && maticOpts[i].writer == _address)\n                    || include_if_buyer && maticOpts[i].buyer == _address)\n            )\n            {\n                resultLength+=1;\n            }\n        }\n        uint[] memory result = new uint[](resultLength);\n        for (uint i = 0; i < maticOpts.length; i++)\n        {\n            if(\n                !(exclude_expired && maticOpts[i].expiry > block.timestamp)\n                && !(exclude_canceled && maticOpts[i].canceled)\n                && !(exclude_exercised && maticOpts[i].canceled)\n                && !(exclude_bought && maticOpts[i].buyer != address(0))\n                && ((include_if_writer && maticOpts[i].writer == _address)\n                    || include_if_buyer && maticOpts[i].buyer == _address)\n            )\n            {\n                result[i] = i;\n            }\n        }\n        return result;\n    }\n\n    function getMaticOpts(\n        bool exclude_expired,\n        bool exclude_canceled,\n        bool exclude_exercised,\n        bool exclude_bought\n    ) public view returns (uint256[] memory optionIds) {\n        uint resultLength = 0;\n        for (uint i = 0; i < maticOpts.length; i++)\n        {\n            if(\n                !(exclude_expired && maticOpts[i].expiry > block.timestamp)\n                && !(exclude_canceled && maticOpts[i].canceled)\n                && !(exclude_exercised && maticOpts[i].canceled)\n                && !(exclude_bought && maticOpts[i].buyer != address(0))\n            )\n            {\n                resultLength+=1;\n            }\n        }\n        uint[] memory result = new uint[](resultLength);\n        for (uint i = 0; i < maticOpts.length; i++)\n        {\n            if(\n                !(exclude_expired && maticOpts[i].expiry > block.timestamp)\n                && !(exclude_canceled && maticOpts[i].canceled)\n                && !(exclude_exercised && maticOpts[i].canceled)\n            )\n            {\n                result[i] = i;\n            }\n        }\n        return result;\n    }\n}",
  "sourcePath": "/home/turupawn/Projects/Blockchain/MaticOptionTrading/contracts/OptionTrades.sol",
  "compiler": {
    "name": "solc",
    "version": "0.8.0+commit.c7dfd78e.Emscripten.clang"
  },
  "schemaVersion": "3.3.4",
  "updatedAt": "2021-05-21T03:27:05.488Z",
  "networkType": "ethereum",
  "devdoc": {
    "kind": "dev",
    "methods": {},
    "version": 1
  },
  "userdoc": {
    "kind": "user",
    "methods": {},
    "version": 1
  }
}